{
  "contractName": "SalmonTrack",
  "abi": [
    {
      "inputs": [
        {
          "internalType": "contract Tether",
          "name": "_tether",
          "type": "address"
        }
      ],
      "stateMutability": "nonpayable",
      "type": "constructor"
    },
    {
      "inputs": [],
      "name": "admin",
      "outputs": [
        {
          "internalType": "address",
          "name": "",
          "type": "address"
        }
      ],
      "stateMutability": "view",
      "type": "function",
      "constant": true
    },
    {
      "inputs": [
        {
          "internalType": "uint256",
          "name": "",
          "type": "uint256"
        }
      ],
      "name": "salmonIds",
      "outputs": [
        {
          "internalType": "bytes32",
          "name": "",
          "type": "bytes32"
        }
      ],
      "stateMutability": "view",
      "type": "function",
      "constant": true
    },
    {
      "inputs": [
        {
          "internalType": "bytes32",
          "name": "",
          "type": "bytes32"
        },
        {
          "internalType": "uint256",
          "name": "",
          "type": "uint256"
        }
      ],
      "name": "salmons",
      "outputs": [
        {
          "internalType": "bytes32",
          "name": "tracker_id",
          "type": "bytes32"
        },
        {
          "internalType": "string",
          "name": "coordinate_url",
          "type": "string"
        },
        {
          "internalType": "uint256",
          "name": "weight",
          "type": "uint256"
        },
        {
          "internalType": "uint256",
          "name": "length",
          "type": "uint256"
        },
        {
          "internalType": "string",
          "name": "image_url",
          "type": "string"
        },
        {
          "internalType": "uint256",
          "name": "status",
          "type": "uint256"
        },
        {
          "internalType": "uint256",
          "name": "catch_time",
          "type": "uint256"
        },
        {
          "internalType": "address",
          "name": "catcher_id",
          "type": "address"
        }
      ],
      "stateMutability": "view",
      "type": "function",
      "constant": true
    },
    {
      "inputs": [],
      "name": "tether",
      "outputs": [
        {
          "internalType": "contract Tether",
          "name": "",
          "type": "address"
        }
      ],
      "stateMutability": "view",
      "type": "function",
      "constant": true
    },
    {
      "inputs": [
        {
          "internalType": "address",
          "name": "",
          "type": "address"
        }
      ],
      "name": "users",
      "outputs": [
        {
          "internalType": "address",
          "name": "user_id",
          "type": "address"
        },
        {
          "internalType": "string",
          "name": "name",
          "type": "string"
        },
        {
          "internalType": "string",
          "name": "surname",
          "type": "string"
        },
        {
          "internalType": "uint256",
          "name": "user_type",
          "type": "uint256"
        }
      ],
      "stateMutability": "view",
      "type": "function",
      "constant": true
    },
    {
      "inputs": [
        {
          "internalType": "address",
          "name": "newUserID",
          "type": "address"
        },
        {
          "internalType": "string",
          "name": "name",
          "type": "string"
        },
        {
          "internalType": "string",
          "name": "surname",
          "type": "string"
        },
        {
          "internalType": "uint256",
          "name": "user_type",
          "type": "uint256"
        }
      ],
      "name": "addNewUser",
      "outputs": [],
      "stateMutability": "nonpayable",
      "type": "function"
    },
    {
      "inputs": [
        {
          "internalType": "address",
          "name": "user_id",
          "type": "address"
        }
      ],
      "name": "getUserNameSurname",
      "outputs": [
        {
          "internalType": "string",
          "name": "name",
          "type": "string"
        },
        {
          "internalType": "string",
          "name": "surname",
          "type": "string"
        }
      ],
      "stateMutability": "view",
      "type": "function",
      "constant": true
    },
    {
      "inputs": [
        {
          "internalType": "address",
          "name": "user_id",
          "type": "address"
        }
      ],
      "name": "getUserType",
      "outputs": [
        {
          "internalType": "uint256",
          "name": "userType",
          "type": "uint256"
        }
      ],
      "stateMutability": "view",
      "type": "function",
      "constant": true
    },
    {
      "inputs": [
        {
          "internalType": "bytes32",
          "name": "tracker_id",
          "type": "bytes32"
        },
        {
          "internalType": "string",
          "name": "coordinate_url",
          "type": "string"
        },
        {
          "internalType": "uint256",
          "name": "weight",
          "type": "uint256"
        },
        {
          "internalType": "uint256",
          "name": "length",
          "type": "uint256"
        },
        {
          "internalType": "string",
          "name": "image_url",
          "type": "string"
        },
        {
          "internalType": "uint256",
          "name": "status",
          "type": "uint256"
        },
        {
          "internalType": "uint256",
          "name": "catch_time",
          "type": "uint256"
        }
      ],
      "name": "registerSalmon",
      "outputs": [],
      "stateMutability": "nonpayable",
      "type": "function"
    },
    {
      "inputs": [
        {
          "internalType": "bytes32",
          "name": "tracker_id",
          "type": "bytes32"
        }
      ],
      "name": "getSalmonData",
      "outputs": [
        {
          "components": [
            {
              "internalType": "bytes32",
              "name": "tracker_id",
              "type": "bytes32"
            },
            {
              "internalType": "string",
              "name": "coordinate_url",
              "type": "string"
            },
            {
              "internalType": "uint256",
              "name": "weight",
              "type": "uint256"
            },
            {
              "internalType": "uint256",
              "name": "length",
              "type": "uint256"
            },
            {
              "internalType": "string",
              "name": "image_url",
              "type": "string"
            },
            {
              "internalType": "uint256",
              "name": "status",
              "type": "uint256"
            },
            {
              "internalType": "uint256",
              "name": "catch_time",
              "type": "uint256"
            },
            {
              "internalType": "address",
              "name": "catcher_id",
              "type": "address"
            }
          ],
          "internalType": "struct SalmonTrack.Salmon[]",
          "name": "salmonData",
          "type": "tuple[]"
        }
      ],
      "stateMutability": "view",
      "type": "function",
      "constant": true
    },
    {
      "inputs": [],
      "name": "getSalmonIds",
      "outputs": [
        {
          "internalType": "bytes32[]",
          "name": "salmonIdsArr",
          "type": "bytes32[]"
        }
      ],
      "stateMutability": "view",
      "type": "function",
      "constant": true
    },
    {
      "inputs": [
        {
          "internalType": "address",
          "name": "user_id",
          "type": "address"
        }
      ],
      "name": "getBalance",
      "outputs": [
        {
          "internalType": "uint256",
          "name": "balance",
          "type": "uint256"
        }
      ],
      "stateMutability": "view",
      "type": "function",
      "constant": true
    }
  ],
  "bytecode": "0x60806040523480156200001157600080fd5b5060405162002de338038062002de3833981810160405281019062000037919062000476565b80600160006101000a81548173ffffffffffffffffffffffffffffffffffffffff021916908373ffffffffffffffffffffffffffffffffffffffff160217905550336000806101000a81548173ffffffffffffffffffffffffffffffffffffffff021916908373ffffffffffffffffffffffffffffffffffffffff16021790555060008054906101000a900473ffffffffffffffffffffffffffffffffffffffff16600260008060009054906101000a900473ffffffffffffffffffffffffffffffffffffffff1673ffffffffffffffffffffffffffffffffffffffff1673ffffffffffffffffffffffffffffffffffffffff16815260200190815260200160002060000160006101000a81548173ffffffffffffffffffffffffffffffffffffffff021916908373ffffffffffffffffffffffffffffffffffffffff1602179055506040518060400160405280600581526020017f41646d696e000000000000000000000000000000000000000000000000000000815250600260008060009054906101000a900473ffffffffffffffffffffffffffffffffffffffff1673ffffffffffffffffffffffffffffffffffffffff1673ffffffffffffffffffffffffffffffffffffffff16815260200190815260200160002060010190805190602001906200022892919062000348565b506040518060400160405280600e81526020017f41646d696e6973747261746f7273000000000000000000000000000000000000815250600260008060009054906101000a900473ffffffffffffffffffffffffffffffffffffffff1673ffffffffffffffffffffffffffffffffffffffff1673ffffffffffffffffffffffffffffffffffffffff1681526020019081526020016000206002019080519060200190620002d792919062000348565b506001600260008060009054906101000a900473ffffffffffffffffffffffffffffffffffffffff1673ffffffffffffffffffffffffffffffffffffffff1673ffffffffffffffffffffffffffffffffffffffff16815260200190815260200160002060030181905550506200050d565b8280546200035690620004d7565b90600052602060002090601f0160209004810192826200037a5760008555620003c6565b82601f106200039557805160ff1916838001178555620003c6565b82800160010185558215620003c6579182015b82811115620003c5578251825591602001919060010190620003a8565b5b509050620003d59190620003d9565b5090565b5b80821115620003f4576000816000905550600101620003da565b5090565b600080fd5b600073ffffffffffffffffffffffffffffffffffffffff82169050919050565b60006200042a82620003fd565b9050919050565b60006200043e826200041d565b9050919050565b620004508162000431565b81146200045c57600080fd5b50565b600081519050620004708162000445565b92915050565b6000602082840312156200048f576200048e620003f8565b5b60006200049f848285016200045f565b91505092915050565b7f4e487b7100000000000000000000000000000000000000000000000000000000600052602260045260246000fd5b60006002820490506001821680620004f057607f821691505b60208210811415620005075762000506620004a8565b5b50919050565b6128c6806200051d6000396000f3fe608060405234801561001057600080fd5b50600436106100b45760003560e01c80638b3f863f116100715780638b3f863f146101a95780638fcb2b2e146101d9578063a87430ba146101f5578063f2e926ee14610228578063f851a44014610258578063f8b2cb4f14610276576100b4565b80631906cbaa146100b957806319cf2b28146100d5578063413844e31461010c5780635545a99f1461012a5780635efc071a1461015b57806378fde05e14610179575b600080fd5b6100d360048036038101906100ce919061197d565b6102a6565b005b6100ef60048036038101906100ea9190611a52565b61061f565b604051610103989796959493929190611b47565b60405180910390f35b6101146107b4565b6040516101219190611c91565b60405180910390f35b610144600480360381019061013f9190611cb3565b61080c565b604051610152929190611ce0565b60405180910390f35b6101636109ae565b6040516101709190611d76565b60405180910390f35b610193600480360381019061018e9190611d91565b6109d4565b6040516101a09190611f9f565b60405180910390f35b6101c360048036038101906101be9190611cb3565b610ece565b6040516101d09190611fc1565b60405180910390f35b6101f360048036038101906101ee9190611fdc565b610f1a565b005b61020f600480360381019061020a9190611cb3565b61149f565b60405161021f94939291906120b6565b60405180910390f35b610242600480360381019061023d9190612109565b6115ff565b60405161024f9190612136565b60405180910390f35b610260611623565b60405161026d9190612151565b60405180910390f35b610290600480360381019061028b9190611cb3565b611647565b60405161029d9190611fc1565b60405180910390f35b60008054906101000a900473ffffffffffffffffffffffffffffffffffffffff1673ffffffffffffffffffffffffffffffffffffffff163373ffffffffffffffffffffffffffffffffffffffff1614610334576040517f08c379a000000000000000000000000000000000000000000000000000000000815260040161032b906121b8565b60405180910390fd5b8373ffffffffffffffffffffffffffffffffffffffff16600260008673ffffffffffffffffffffffffffffffffffffffff1673ffffffffffffffffffffffffffffffffffffffff16815260200190815260200160002060000160009054906101000a900473ffffffffffffffffffffffffffffffffffffffff1673ffffffffffffffffffffffffffffffffffffffff161415610405576040517f08c379a00000000000000000000000000000000000000000000000000000000081526004016103fc90612224565b60405180910390fd5b6001811415610449576040517f08c379a000000000000000000000000000000000000000000000000000000000815260040161044090612290565b60405180910390fd5b600181118015610464575060028114806104635750600381145b5b6104a3576040517f08c379a000000000000000000000000000000000000000000000000000000000815260040161049a906122fc565b60405180910390fd5b83600260008673ffffffffffffffffffffffffffffffffffffffff1673ffffffffffffffffffffffffffffffffffffffff16815260200190815260200160002060000160006101000a81548173ffffffffffffffffffffffffffffffffffffffff021916908373ffffffffffffffffffffffffffffffffffffffff16021790555082600260008673ffffffffffffffffffffffffffffffffffffffff1673ffffffffffffffffffffffffffffffffffffffff168152602001908152602001600020600101908051906020019061057a9291906116ec565b5081600260008673ffffffffffffffffffffffffffffffffffffffff1673ffffffffffffffffffffffffffffffffffffffff16815260200190815260200160002060020190805190602001906105d19291906116ec565b5080600260008673ffffffffffffffffffffffffffffffffffffffff1673ffffffffffffffffffffffffffffffffffffffff1681526020019081526020016000206003018190555050505050565b6003602052816000526040600020818154811061063b57600080fd5b9060005260206000209060080201600091509150508060000154908060010180546106659061234b565b80601f01602080910402602001604051908101604052809291908181526020018280546106919061234b565b80156106de5780601f106106b3576101008083540402835291602001916106de565b820191906000526020600020905b8154815290600101906020018083116106c157829003601f168201915b5050505050908060020154908060030154908060040180546106ff9061234b565b80601f016020809104026020016040519081016040528092919081815260200182805461072b9061234b565b80156107785780601f1061074d57610100808354040283529160200191610778565b820191906000526020600020905b81548152906001019060200180831161075b57829003601f168201915b5050505050908060050154908060060154908060070160009054906101000a900473ffffffffffffffffffffffffffffffffffffffff16905088565b6060600480548060200260200160405190810160405280929190818152602001828054801561080257602002820191906000526020600020905b8154815260200190600101908083116107ee575b5050505050905090565b606080600260008473ffffffffffffffffffffffffffffffffffffffff1673ffffffffffffffffffffffffffffffffffffffff168152602001908152602001600020600101805461085c9061234b565b80601f01602080910402602001604051908101604052809291908181526020018280546108889061234b565b80156108d55780601f106108aa576101008083540402835291602001916108d5565b820191906000526020600020905b8154815290600101906020018083116108b857829003601f168201915b50505050509150600260008473ffffffffffffffffffffffffffffffffffffffff1673ffffffffffffffffffffffffffffffffffffffff16815260200190815260200160002060020180546109299061234b565b80601f01602080910402602001604051908101604052809291908181526020018280546109559061234b565b80156109a25780601f10610977576101008083540402835291602001916109a2565b820191906000526020600020905b81548152906001019060200180831161098557829003601f168201915b50505050509050915091565b600160009054906101000a900473ffffffffffffffffffffffffffffffffffffffff1681565b60606000600260003373ffffffffffffffffffffffffffffffffffffffff1673ffffffffffffffffffffffffffffffffffffffff1681526020019081526020016000206040518060800160405290816000820160009054906101000a900473ffffffffffffffffffffffffffffffffffffffff1673ffffffffffffffffffffffffffffffffffffffff1673ffffffffffffffffffffffffffffffffffffffff168152602001600182018054610a889061234b565b80601f0160208091040260200160405190810160405280929190818152602001828054610ab49061234b565b8015610b015780601f10610ad657610100808354040283529160200191610b01565b820191906000526020600020905b815481529060010190602001808311610ae457829003601f168201915b50505050508152602001600282018054610b1a9061234b565b80601f0160208091040260200160405190810160405280929190818152602001828054610b469061234b565b8015610b935780601f10610b6857610100808354040283529160200191610b93565b820191906000526020600020905b815481529060010190602001808311610b7657829003601f168201915b505050505081526020016003820154815250509050600060036000858152602001908152602001600020805490501415610c02576040517f08c379a0000000000000000000000000000000000000000000000000000000008152600401610bf9906123c9565b60405180910390fd5b60036000848152602001908152602001600020805480602002602001604051908101604052809291908181526020016000905b82821015610e1457838290600052602060002090600802016040518061010001604052908160008201548152602001600182018054610c739061234b565b80601f0160208091040260200160405190810160405280929190818152602001828054610c9f9061234b565b8015610cec5780601f10610cc157610100808354040283529160200191610cec565b820191906000526020600020905b815481529060010190602001808311610ccf57829003601f168201915b505050505081526020016002820154815260200160038201548152602001600482018054610d199061234b565b80601f0160208091040260200160405190810160405280929190818152602001828054610d459061234b565b8015610d925780601f10610d6757610100808354040283529160200191610d92565b820191906000526020600020905b815481529060010190602001808311610d7557829003601f168201915b5050505050815260200160058201548152602001600682015481526020016007820160009054906101000a900473ffffffffffffffffffffffffffffffffffffffff1673ffffffffffffffffffffffffffffffffffffffff1673ffffffffffffffffffffffffffffffffffffffff168152505081526020019060010190610c35565b50505050915060005b6003600085815260200190815260200160002080549050811015610ec7576001826060015114158015610e5557506002826060015114155b15610eb3576040518060400160405280600981526020017f756e646566696e65640000000000000000000000000000000000000000000000815250838281518110610ea357610ea26123e9565b5b6020026020010151602001819052505b600181610ec09190612447565b9050610e1d565b5050919050565b6000600260008373ffffffffffffffffffffffffffffffffffffffff1673ffffffffffffffffffffffffffffffffffffffff168152602001908152602001600020600301549050919050565b600060036000898152602001908152602001600020805490501415611058576001600260003373ffffffffffffffffffffffffffffffffffffffff1673ffffffffffffffffffffffffffffffffffffffff168152602001908152602001600020600301541480610fcb575060028060003373ffffffffffffffffffffffffffffffffffffffff1673ffffffffffffffffffffffffffffffffffffffff16815260200190815260200160002060030154145b8061101857506003600260003373ffffffffffffffffffffffffffffffffffffffff1673ffffffffffffffffffffffffffffffffffffffff16815260200190815260200160002060030154145b611057576040517f08c379a000000000000000000000000000000000000000000000000000000000815260040161104e90612535565b60405180910390fd5b5b60008214806110675750600182145b6110a6576040517f08c379a000000000000000000000000000000000000000000000000000000000815260040161109d906125c7565b60405180910390fd5b428111156110e9576040517f08c379a00000000000000000000000000000000000000000000000000000000081526004016110e090612633565b60405180910390fd5b60006003600089815260200190815260200160002080549050146112845760006003600089815260200190815260200160002080549050905084600360008a81526020019081526020016000206001836111439190612653565b81548110611154576111536123e9565b5b906000526020600020906008020160030154111580156111b6575081600360008a81526020019081526020016000206001836111909190612653565b815481106111a1576111a06123e9565b5b90600052602060002090600802016006015411155b6111f5576040517f08c379a00000000000000000000000000000000000000000000000000000000081526004016111ec906126f9565b60405180910390fd5b6000600360008a81526020019081526020016000206001836112179190612653565b81548110611228576112276123e9565b5b9060005260206000209060080201600501541415611282576000611281576040517f08c379a000000000000000000000000000000000000000000000000000000000815260040161127890612765565b60405180910390fd5b5b505b600360008881526020019081526020016000206040518061010001604052808981526020018881526020018781526020018681526020018581526020018481526020018381526020013373ffffffffffffffffffffffffffffffffffffffff1681525090806001815401808255809150506001900390600052602060002090600802016000909190919091506000820151816000015560208201518160010190805190602001906113369291906116ec565b50604082015181600201556060820151816003015560808201518160040190805190602001906113679291906116ec565b5060a0820151816005015560c0820151816006015560e08201518160070160006101000a81548173ffffffffffffffffffffffffffffffffffffffff021916908373ffffffffffffffffffffffffffffffffffffffff1602179055505050600160009054906101000a900473ffffffffffffffffffffffffffffffffffffffff1673ffffffffffffffffffffffffffffffffffffffff1663a9059cbb336601c6bf526340006040518363ffffffff1660e01b81526004016114299291906127c0565b6020604051808303816000875af1158015611448573d6000803e3d6000fd5b505050506040513d601f19601f8201168201806040525081019061146c9190612821565b50600487908060018154018082558091505060019003906000526020600020016000909190919091505550505050505050565b60026020528060005260406000206000915090508060000160009054906101000a900473ffffffffffffffffffffffffffffffffffffffff16908060010180546114e89061234b565b80601f01602080910402602001604051908101604052809291908181526020018280546115149061234b565b80156115615780601f1061153657610100808354040283529160200191611561565b820191906000526020600020905b81548152906001019060200180831161154457829003601f168201915b5050505050908060020180546115769061234b565b80601f01602080910402602001604051908101604052809291908181526020018280546115a29061234b565b80156115ef5780601f106115c4576101008083540402835291602001916115ef565b820191906000526020600020905b8154815290600101906020018083116115d257829003601f168201915b5050505050908060030154905084565b6004818154811061160f57600080fd5b906000526020600020016000915090505481565b60008054906101000a900473ffffffffffffffffffffffffffffffffffffffff1681565b6000600160009054906101000a900473ffffffffffffffffffffffffffffffffffffffff1673ffffffffffffffffffffffffffffffffffffffff166370a08231836040518263ffffffff1660e01b81526004016116a49190612151565b602060405180830381865afa1580156116c1573d6000803e3d6000fd5b505050506040513d601f19601f820116820180604052508101906116e59190612863565b9050919050565b8280546116f89061234b565b90600052602060002090601f01602090048101928261171a5760008555611761565b82601f1061173357805160ff1916838001178555611761565b82800160010185558215611761579182015b82811115611760578251825591602001919060010190611745565b5b50905061176e9190611772565b5090565b5b8082111561178b576000816000905550600101611773565b5090565b6000604051905090565b600080fd5b600080fd5b600073ffffffffffffffffffffffffffffffffffffffff82169050919050565b60006117ce826117a3565b9050919050565b6117de816117c3565b81146117e957600080fd5b50565b6000813590506117fb816117d5565b92915050565b600080fd5b600080fd5b6000601f19601f8301169050919050565b7f4e487b7100000000000000000000000000000000000000000000000000000000600052604160045260246000fd5b6118548261180b565b810181811067ffffffffffffffff821117156118735761187261181c565b5b80604052505050565b600061188661178f565b9050611892828261184b565b919050565b600067ffffffffffffffff8211156118b2576118b161181c565b5b6118bb8261180b565b9050602081019050919050565b82818337600083830152505050565b60006118ea6118e584611897565b61187c565b90508281526020810184848401111561190657611905611806565b5b6119118482856118c8565b509392505050565b600082601f83011261192e5761192d611801565b5b813561193e8482602086016118d7565b91505092915050565b6000819050919050565b61195a81611947565b811461196557600080fd5b50565b60008135905061197781611951565b92915050565b6000806000806080858703121561199757611996611799565b5b60006119a5878288016117ec565b945050602085013567ffffffffffffffff8111156119c6576119c561179e565b5b6119d287828801611919565b935050604085013567ffffffffffffffff8111156119f3576119f261179e565b5b6119ff87828801611919565b9250506060611a1087828801611968565b91505092959194509250565b6000819050919050565b611a2f81611a1c565b8114611a3a57600080fd5b50565b600081359050611a4c81611a26565b92915050565b60008060408385031215611a6957611a68611799565b5b6000611a7785828601611a3d565b9250506020611a8885828601611968565b9150509250929050565b611a9b81611a1c565b82525050565b600081519050919050565b600082825260208201905092915050565b60005b83811015611adb578082015181840152602081019050611ac0565b83811115611aea576000848401525b50505050565b6000611afb82611aa1565b611b058185611aac565b9350611b15818560208601611abd565b611b1e8161180b565b840191505092915050565b611b3281611947565b82525050565b611b41816117c3565b82525050565b600061010082019050611b5d600083018b611a92565b8181036020830152611b6f818a611af0565b9050611b7e6040830189611b29565b611b8b6060830188611b29565b8181036080830152611b9d8187611af0565b9050611bac60a0830186611b29565b611bb960c0830185611b29565b611bc660e0830184611b38565b9998505050505050505050565b600081519050919050565b600082825260208201905092915050565b6000819050602082019050919050565b611c0881611a1c565b82525050565b6000611c1a8383611bff565b60208301905092915050565b6000602082019050919050565b6000611c3e82611bd3565b611c488185611bde565b9350611c5383611bef565b8060005b83811015611c84578151611c6b8882611c0e565b9750611c7683611c26565b925050600181019050611c57565b5085935050505092915050565b60006020820190508181036000830152611cab8184611c33565b905092915050565b600060208284031215611cc957611cc8611799565b5b6000611cd7848285016117ec565b91505092915050565b60006040820190508181036000830152611cfa8185611af0565b90508181036020830152611d0e8184611af0565b90509392505050565b6000819050919050565b6000611d3c611d37611d32846117a3565b611d17565b6117a3565b9050919050565b6000611d4e82611d21565b9050919050565b6000611d6082611d43565b9050919050565b611d7081611d55565b82525050565b6000602082019050611d8b6000830184611d67565b92915050565b600060208284031215611da757611da6611799565b5b6000611db584828501611a3d565b91505092915050565b600081519050919050565b600082825260208201905092915050565b6000819050602082019050919050565b600082825260208201905092915050565b6000611e0682611aa1565b611e108185611dea565b9350611e20818560208601611abd565b611e298161180b565b840191505092915050565b611e3d81611947565b82525050565b611e4c816117c3565b82525050565b600061010083016000830151611e6b6000860182611bff565b5060208301518482036020860152611e838282611dfb565b9150506040830151611e986040860182611e34565b506060830151611eab6060860182611e34565b5060808301518482036080860152611ec38282611dfb565b91505060a0830151611ed860a0860182611e34565b5060c0830151611eeb60c0860182611e34565b5060e0830151611efe60e0860182611e43565b508091505092915050565b6000611f158383611e52565b905092915050565b6000602082019050919050565b6000611f3582611dbe565b611f3f8185611dc9565b935083602082028501611f5185611dda565b8060005b85811015611f8d5784840389528151611f6e8582611f09565b9450611f7983611f1d565b925060208a01995050600181019050611f55565b50829750879550505050505092915050565b60006020820190508181036000830152611fb98184611f2a565b905092915050565b6000602082019050611fd66000830184611b29565b92915050565b600080600080600080600060e0888a031215611ffb57611ffa611799565b5b60006120098a828b01611a3d565b975050602088013567ffffffffffffffff81111561202a5761202961179e565b5b6120368a828b01611919565b96505060406120478a828b01611968565b95505060606120588a828b01611968565b945050608088013567ffffffffffffffff8111156120795761207861179e565b5b6120858a828b01611919565b93505060a06120968a828b01611968565b92505060c06120a78a828b01611968565b91505092959891949750929550565b60006080820190506120cb6000830187611b38565b81810360208301526120dd8186611af0565b905081810360408301526120f18185611af0565b90506121006060830184611b29565b95945050505050565b60006020828403121561211f5761211e611799565b5b600061212d84828501611968565b91505092915050565b600060208201905061214b6000830184611a92565b92915050565b60006020820190506121666000830184611b38565b92915050565b7f4f6e6c792061646d696e2063616e206164642075736572732100000000000000600082015250565b60006121a2601983611aac565b91506121ad8261216c565b602082019050919050565b600060208201905081810360008301526121d181612195565b9050919050565b7f5573657220616c72656164792065786973747321000000000000000000000000600082015250565b600061220e601483611aac565b9150612219826121d8565b602082019050919050565b6000602082019050818103600083015261223d81612201565b9050919050565b7f4f6e6c79206f6e652061646d696e2063616e2065786973742100000000000000600082015250565b600061227a601983611aac565b915061228582612244565b602082019050919050565b600060208201905081810360008301526122a98161226d565b9050919050565b7f456e7465722076616c696420747970655f696421000000000000000000000000600082015250565b60006122e6601483611aac565b91506122f1826122b0565b602082019050919050565b60006020820190508181036000830152612315816122d9565b9050919050565b7f4e487b7100000000000000000000000000000000000000000000000000000000600052602260045260246000fd5b6000600282049050600182168061236357607f821691505b602082108114156123775761237661231c565b5b50919050565b7f4e6f2053616c6d6f6e20666f756e642100000000000000000000000000000000600082015250565b60006123b3601083611aac565b91506123be8261237d565b602082019050919050565b600060208201905081810360008301526123e2816123a6565b9050919050565b7f4e487b7100000000000000000000000000000000000000000000000000000000600052603260045260246000fd5b7f4e487b7100000000000000000000000000000000000000000000000000000000600052601160045260246000fd5b600061245282611947565b915061245d83611947565b9250827fffffffffffffffffffffffffffffffffffffffffffffffffffffffffffffffff0382111561249257612491612418565b5b828201905092915050565b7f416464206669727374206669736820646174612063616e206265206d616e616760008201527f65642062792061646d696e2c207363696574697374206f7220617574686f726960208201527f7a6564206669736865726d616e00000000000000000000000000000000000000604082015250565b600061251f604d83611aac565b915061252a8261249d565b606082019050919050565b6000602082019050818103600083015261254e81612512565b9050919050565b7f5468657265206973206f6e6c792032207374617475736573202d3e204465616460008201527f206f7220416c6976650000000000000000000000000000000000000000000000602082015250565b60006125b1602983611aac565b91506125bc82612555565b604082019050919050565b600060208201905081810360008301526125e0816125a4565b9050919050565b7f506c6561736520656e7465722076616c69642064617465210000000000000000600082015250565b600061261d601883611aac565b9150612628826125e7565b602082019050919050565b6000602082019050818103600083015261264c81612610565b9050919050565b600061265e82611947565b915061266983611947565b92508282101561267c5761267b612418565b5b828203905092915050565b7f4461746120697320696e76616c696420666973682063616e277420736872696e60008201527f6b206f722062652063617567687420696e207061737421000000000000000000602082015250565b60006126e3603783611aac565b91506126ee82612687565b604082019050919050565b60006020820190508181036000830152612712816126d6565b9050919050565b7f596f752063616e6e6f74206368616e6765207468652064656164210000000000600082015250565b600061274f601b83611aac565b915061275a82612719565b602082019050919050565b6000602082019050818103600083015261277e81612742565b9050919050565b6000819050919050565b60006127aa6127a56127a084612785565b611d17565b611947565b9050919050565b6127ba8161278f565b82525050565b60006040820190506127d56000830185611b38565b6127e260208301846127b1565b9392505050565b60008115159050919050565b6127fe816127e9565b811461280957600080fd5b50565b60008151905061281b816127f5565b92915050565b60006020828403121561283757612836611799565b5b60006128458482850161280c565b91505092915050565b60008151905061285d81611951565b92915050565b60006020828403121561287957612878611799565b5b60006128878482850161284e565b9150509291505056fea2646970667358221220cfd39e327084b89cc1d34949fddfd6ece03fcab977213a034ffac1fa7ea25eb664736f6c634300080b0033",
  "immutableReferences": {},
  "source": "// SPDX-License-Identifier: GPL-3.0\r\npragma solidity >=0.7.0 <0.9.0;\r\nimport \"./Tether.sol\";\r\n\r\ncontract SalmonTrack {\r\n    struct Salmon {\r\n        bytes32 tracker_id;\r\n        string coordinate_url;\r\n        uint256 weight;\r\n        uint256 length;\r\n        string image_url;\r\n        uint256 status;\r\n        uint256 catch_time;\r\n        address catcher_id;\r\n    }\r\n\r\n    struct User {\r\n        address user_id;\r\n        string name;\r\n        string surname;\r\n        uint256 user_type;\r\n    }\r\n\r\n    address public admin;\r\n    Tether public tether;\r\n\r\n    mapping(address => User) public users;\r\n    mapping(bytes32 => Salmon[]) public salmons;\r\n\r\n    bytes32[] public salmonIds;\r\n\r\n    constructor(Tether _tether) {\r\n        tether = _tether;\r\n\r\n        admin = msg.sender;\r\n        users[admin].user_id = admin;\r\n        users[admin].name = \"Admin\";\r\n        users[admin].surname = \"Administrators\";\r\n        users[admin].user_type = 1;\r\n    }\r\n\r\n    function addNewUser(\r\n        address newUserID,\r\n        string memory name,\r\n        string memory surname,\r\n        uint256 user_type\r\n    ) public {\r\n        require(msg.sender == admin, \"Only admin can add users!\");\r\n        require(users[newUserID].user_id != newUserID, \"User already exists!\");\r\n        require(user_type != 1, \"Only one admin can exist!\");\r\n        require(\r\n            user_type > 1 && (user_type == 2 || user_type == 3),\r\n            \"Enter valid type_id!\"\r\n        );\r\n\r\n        users[newUserID].user_id = newUserID;\r\n        users[newUserID].name = name;\r\n        users[newUserID].surname = surname;\r\n        users[newUserID].user_type = user_type;\r\n    }\r\n\r\n    function getUserNameSurname(address user_id)\r\n        public\r\n        view\r\n        returns (string memory name, string memory surname)\r\n    {\r\n        name = users[user_id].name;\r\n        surname = users[user_id].surname;\r\n    }\r\n\r\n    function getUserType(address user_id)\r\n        public\r\n        view\r\n        returns (uint256 userType)\r\n    {\r\n        userType = users[user_id].user_type;\r\n    }\r\n\r\n    function registerSalmon(\r\n        bytes32 tracker_id,\r\n        string memory coordinate_url,\r\n        uint256 weight,\r\n        uint256 length,\r\n        string memory image_url,\r\n        uint256 status,\r\n        uint256 catch_time\r\n    ) public {\r\n        if (salmons[tracker_id].length == 0) {\r\n            require(\r\n                (users[msg.sender].user_type == 1 ||\r\n                    users[msg.sender].user_type == 2 ||\r\n                    users[msg.sender].user_type == 3),\r\n                \"Add first fish data can be managed by admin, scietist or authorized fisherman\"\r\n            );\r\n        }\r\n\r\n        require(\r\n            status == 0 || status == 1,\r\n            \"There is only 2 statuses -> Dead or Alive\"\r\n        );\r\n\r\n        require(catch_time <= block.timestamp, \"Please enter valid date!\");\r\n\r\n        if (salmons[tracker_id].length != 0) {\r\n            uint256 arrLength = salmons[tracker_id].length;\r\n\r\n            require(\r\n                salmons[tracker_id][arrLength - 1].length <= length &&\r\n                    salmons[tracker_id][arrLength - 1].catch_time <= catch_time,\r\n                \"Data is invalid fish can't shrink or be caught in past!\"\r\n            );\r\n\r\n            if (salmons[tracker_id][arrLength - 1].status == 0) {\r\n                require(false, \"You cannot change the dead!\");\r\n            }\r\n        }\r\n\r\n        salmons[tracker_id].push(\r\n            Salmon(\r\n                tracker_id,\r\n                coordinate_url,\r\n                weight,\r\n                length,\r\n                image_url,\r\n                status,\r\n                catch_time,\r\n                msg.sender\r\n            )\r\n        );\r\n\r\n        tether.transfer(msg.sender, 500000000000000); // Getting reward (0.0005 eth) for registrating a fish\r\n        salmonIds.push(tracker_id);\r\n    }\r\n\r\n    function getSalmonData(bytes32 tracker_id)\r\n        public\r\n        view\r\n        returns (Salmon[] memory salmonData)\r\n    {\r\n        User memory user = users[msg.sender];\r\n\r\n        require(salmons[tracker_id].length != 0, \"No Salmon found!\");\r\n\r\n        salmonData = salmons[tracker_id];\r\n        for (uint256 i = 0; i < salmons[tracker_id].length; i = i + 1) {\r\n            if (user.user_type != 1 && user.user_type != 2) {\r\n                salmonData[i].coordinate_url = \"undefined\";\r\n            }\r\n        }\r\n    }\r\n\r\n    function getSalmonIds()\r\n        public\r\n        view\r\n        returns (bytes32[] memory salmonIdsArr)\r\n    {\r\n        salmonIdsArr = salmonIds;\r\n    }\r\n\r\n    function getBalance(address user_id) public view returns (uint256 balance) {\r\n        balance = tether.balanceOf(user_id);\r\n    }\r\n}\r\n",
  "sourcePath": "C:\\Users\\ricar\\OneDrive\\Desktop\\LU 7.sem\\Blokdes\\gala-darbs-rn18011\\src\\contracts\\SalmonTrack.sol",
  "compiler": {
    "name": "solc",
    "version": "0.8.11+commit.d7f03943.Emscripten.clang"
  },
  "schemaVersion": "3.4.4",
  "updatedAt": "2022-01-23T19:54:39.844Z",
  "networkType": "ethereum",
  "devdoc": {
    "kind": "dev",
    "methods": {},
    "version": 1
  },
  "userdoc": {
    "kind": "user",
    "methods": {},
    "version": 1
  }
}