{
  "contractName": "SalmonTrack",
  "abi": [
    {
      "inputs": [
        {
          "internalType": "contract Tether",
          "name": "_tether",
          "type": "address"
        }
      ],
      "stateMutability": "nonpayable",
      "type": "constructor"
    },
    {
      "inputs": [],
      "name": "admin",
      "outputs": [
        {
          "internalType": "address",
          "name": "",
          "type": "address"
        }
      ],
      "stateMutability": "view",
      "type": "function",
      "constant": true
    },
    {
      "inputs": [
        {
          "internalType": "uint256",
          "name": "",
          "type": "uint256"
        }
      ],
      "name": "salmonIds",
      "outputs": [
        {
          "internalType": "bytes32",
          "name": "",
          "type": "bytes32"
        }
      ],
      "stateMutability": "view",
      "type": "function",
      "constant": true
    },
    {
      "inputs": [
        {
          "internalType": "bytes32",
          "name": "",
          "type": "bytes32"
        },
        {
          "internalType": "uint256",
          "name": "",
          "type": "uint256"
        }
      ],
      "name": "salmons",
      "outputs": [
        {
          "internalType": "bytes32",
          "name": "tracker_id",
          "type": "bytes32"
        },
        {
          "internalType": "string",
          "name": "coordinate_url",
          "type": "string"
        },
        {
          "internalType": "uint256",
          "name": "weight",
          "type": "uint256"
        },
        {
          "internalType": "uint256",
          "name": "length",
          "type": "uint256"
        },
        {
          "internalType": "string",
          "name": "image_url",
          "type": "string"
        },
        {
          "internalType": "uint8",
          "name": "status",
          "type": "uint8"
        },
        {
          "internalType": "uint256",
          "name": "catch_time",
          "type": "uint256"
        },
        {
          "internalType": "address",
          "name": "catcher_id",
          "type": "address"
        }
      ],
      "stateMutability": "view",
      "type": "function",
      "constant": true
    },
    {
      "inputs": [],
      "name": "tether",
      "outputs": [
        {
          "internalType": "contract Tether",
          "name": "",
          "type": "address"
        }
      ],
      "stateMutability": "view",
      "type": "function",
      "constant": true
    },
    {
      "inputs": [
        {
          "internalType": "address",
          "name": "",
          "type": "address"
        }
      ],
      "name": "users",
      "outputs": [
        {
          "internalType": "address",
          "name": "user_id",
          "type": "address"
        },
        {
          "internalType": "string",
          "name": "name",
          "type": "string"
        },
        {
          "internalType": "string",
          "name": "surname",
          "type": "string"
        },
        {
          "internalType": "uint256",
          "name": "user_type",
          "type": "uint256"
        }
      ],
      "stateMutability": "view",
      "type": "function",
      "constant": true
    },
    {
      "inputs": [
        {
          "internalType": "address",
          "name": "newUserID",
          "type": "address"
        },
        {
          "internalType": "string",
          "name": "name",
          "type": "string"
        },
        {
          "internalType": "string",
          "name": "surname",
          "type": "string"
        },
        {
          "internalType": "uint256",
          "name": "user_type",
          "type": "uint256"
        }
      ],
      "name": "addNewUser",
      "outputs": [],
      "stateMutability": "nonpayable",
      "type": "function"
    },
    {
      "inputs": [
        {
          "internalType": "address",
          "name": "user_id",
          "type": "address"
        }
      ],
      "name": "getUserNameSurname",
      "outputs": [
        {
          "internalType": "string",
          "name": "name",
          "type": "string"
        },
        {
          "internalType": "string",
          "name": "surname",
          "type": "string"
        }
      ],
      "stateMutability": "view",
      "type": "function",
      "constant": true
    },
    {
      "inputs": [
        {
          "internalType": "address",
          "name": "user_id",
          "type": "address"
        }
      ],
      "name": "getUserType",
      "outputs": [
        {
          "internalType": "uint256",
          "name": "userType",
          "type": "uint256"
        }
      ],
      "stateMutability": "view",
      "type": "function",
      "constant": true
    },
    {
      "inputs": [
        {
          "internalType": "bytes32",
          "name": "tracker_id",
          "type": "bytes32"
        },
        {
          "internalType": "string",
          "name": "coordinate_url",
          "type": "string"
        },
        {
          "internalType": "uint256",
          "name": "weight",
          "type": "uint256"
        },
        {
          "internalType": "uint256",
          "name": "length",
          "type": "uint256"
        },
        {
          "internalType": "string",
          "name": "image_url",
          "type": "string"
        },
        {
          "internalType": "uint8",
          "name": "status",
          "type": "uint8"
        },
        {
          "internalType": "uint256",
          "name": "catch_time",
          "type": "uint256"
        }
      ],
      "name": "registerSalmon",
      "outputs": [],
      "stateMutability": "nonpayable",
      "type": "function"
    },
    {
      "inputs": [
        {
          "internalType": "bytes32",
          "name": "tracker_id",
          "type": "bytes32"
        }
      ],
      "name": "getSalmonData",
      "outputs": [
        {
          "components": [
            {
              "internalType": "bytes32",
              "name": "tracker_id",
              "type": "bytes32"
            },
            {
              "internalType": "string",
              "name": "coordinate_url",
              "type": "string"
            },
            {
              "internalType": "uint256",
              "name": "weight",
              "type": "uint256"
            },
            {
              "internalType": "uint256",
              "name": "length",
              "type": "uint256"
            },
            {
              "internalType": "string",
              "name": "image_url",
              "type": "string"
            },
            {
              "internalType": "uint8",
              "name": "status",
              "type": "uint8"
            },
            {
              "internalType": "uint256",
              "name": "catch_time",
              "type": "uint256"
            },
            {
              "internalType": "address",
              "name": "catcher_id",
              "type": "address"
            }
          ],
          "internalType": "struct SalmonTrack.Salmon[]",
          "name": "salmonData",
          "type": "tuple[]"
        }
      ],
      "stateMutability": "view",
      "type": "function",
      "constant": true
    },
    {
      "inputs": [],
      "name": "getSalmonIds",
      "outputs": [
        {
          "internalType": "bytes32[]",
          "name": "salmonIdsArr",
          "type": "bytes32[]"
        }
      ],
      "stateMutability": "view",
      "type": "function",
      "constant": true
    },
    {
      "inputs": [
        {
          "internalType": "address",
          "name": "user_id",
          "type": "address"
        }
      ],
      "name": "getBalance",
      "outputs": [
        {
          "internalType": "uint256",
          "name": "balance",
          "type": "uint256"
        }
      ],
      "stateMutability": "view",
      "type": "function",
      "constant": true
    }
  ],
  "bytecode": "0x60806040523480156200001157600080fd5b5060405162002f8438038062002f84833981810160405281019062000037919062000476565b80600160006101000a81548173ffffffffffffffffffffffffffffffffffffffff021916908373ffffffffffffffffffffffffffffffffffffffff160217905550336000806101000a81548173ffffffffffffffffffffffffffffffffffffffff021916908373ffffffffffffffffffffffffffffffffffffffff16021790555060008054906101000a900473ffffffffffffffffffffffffffffffffffffffff16600260008060009054906101000a900473ffffffffffffffffffffffffffffffffffffffff1673ffffffffffffffffffffffffffffffffffffffff1673ffffffffffffffffffffffffffffffffffffffff16815260200190815260200160002060000160006101000a81548173ffffffffffffffffffffffffffffffffffffffff021916908373ffffffffffffffffffffffffffffffffffffffff1602179055506040518060400160405280600581526020017f41646d696e000000000000000000000000000000000000000000000000000000815250600260008060009054906101000a900473ffffffffffffffffffffffffffffffffffffffff1673ffffffffffffffffffffffffffffffffffffffff1673ffffffffffffffffffffffffffffffffffffffff16815260200190815260200160002060010190805190602001906200022892919062000348565b506040518060400160405280600e81526020017f41646d696e6973747261746f7273000000000000000000000000000000000000815250600260008060009054906101000a900473ffffffffffffffffffffffffffffffffffffffff1673ffffffffffffffffffffffffffffffffffffffff1673ffffffffffffffffffffffffffffffffffffffff1681526020019081526020016000206002019080519060200190620002d792919062000348565b506001600260008060009054906101000a900473ffffffffffffffffffffffffffffffffffffffff1673ffffffffffffffffffffffffffffffffffffffff1673ffffffffffffffffffffffffffffffffffffffff16815260200190815260200160002060030181905550506200050d565b8280546200035690620004d7565b90600052602060002090601f0160209004810192826200037a5760008555620003c6565b82601f106200039557805160ff1916838001178555620003c6565b82800160010185558215620003c6579182015b82811115620003c5578251825591602001919060010190620003a8565b5b509050620003d59190620003d9565b5090565b5b80821115620003f4576000816000905550600101620003da565b5090565b600080fd5b600073ffffffffffffffffffffffffffffffffffffffff82169050919050565b60006200042a82620003fd565b9050919050565b60006200043e826200041d565b9050919050565b620004508162000431565b81146200045c57600080fd5b50565b600081519050620004708162000445565b92915050565b6000602082840312156200048f576200048e620003f8565b5b60006200049f848285016200045f565b91505092915050565b7f4e487b7100000000000000000000000000000000000000000000000000000000600052602260045260246000fd5b60006002820490506001821680620004f057607f821691505b60208210811415620005075762000506620004a8565b5b50919050565b612a67806200051d6000396000f3fe608060405234801561001057600080fd5b50600436106100b45760003560e01c80638b3f863f116100715780638b3f863f146101a9578063a87430ba146101d9578063a90f71fc1461020c578063f2e926ee14610228578063f851a44014610258578063f8b2cb4f14610276576100b4565b80631906cbaa146100b957806319cf2b28146100d5578063413844e31461010c5780635545a99f1461012a5780635efc071a1461015b57806378fde05e14610179575b600080fd5b6100d360048036038101906100ce9190611a5b565b6102a6565b005b6100ef60048036038101906100ea9190611b30565b61061f565b604051610103989796959493929190611c41565b60405180910390f35b6101146107c1565b6040516101219190611d8b565b60405180910390f35b610144600480360381019061013f9190611dad565b610819565b604051610152929190611dda565b60405180910390f35b610163610a49565b6040516101709190611e70565b60405180910390f35b610193600480360381019061018e9190611e8b565b610a6f565b6040516101a091906120a8565b60405180910390f35b6101c360048036038101906101be9190611dad565b610f7c565b6040516101d091906120ca565b60405180910390f35b6101f360048036038101906101ee9190611dad565b610fc8565b60405161020394939291906120e5565b60405180910390f35b61022660048036038101906102219190612164565b611128565b005b610242600480360381019061023d919061223e565b6116dd565b60405161024f919061226b565b60405180910390f35b610260611701565b60405161026d9190612286565b60405180910390f35b610290600480360381019061028b9190611dad565b611725565b60405161029d91906120ca565b60405180910390f35b60008054906101000a900473ffffffffffffffffffffffffffffffffffffffff1673ffffffffffffffffffffffffffffffffffffffff163373ffffffffffffffffffffffffffffffffffffffff1614610334576040517f08c379a000000000000000000000000000000000000000000000000000000000815260040161032b906122ed565b60405180910390fd5b8373ffffffffffffffffffffffffffffffffffffffff16600260008673ffffffffffffffffffffffffffffffffffffffff1673ffffffffffffffffffffffffffffffffffffffff16815260200190815260200160002060000160009054906101000a900473ffffffffffffffffffffffffffffffffffffffff1673ffffffffffffffffffffffffffffffffffffffff161415610405576040517f08c379a00000000000000000000000000000000000000000000000000000000081526004016103fc90612359565b60405180910390fd5b6001811415610449576040517f08c379a0000000000000000000000000000000000000000000000000000000008152600401610440906123c5565b60405180910390fd5b600181118015610464575060028114806104635750600381145b5b6104a3576040517f08c379a000000000000000000000000000000000000000000000000000000000815260040161049a90612431565b60405180910390fd5b83600260008673ffffffffffffffffffffffffffffffffffffffff1673ffffffffffffffffffffffffffffffffffffffff16815260200190815260200160002060000160006101000a81548173ffffffffffffffffffffffffffffffffffffffff021916908373ffffffffffffffffffffffffffffffffffffffff16021790555082600260008673ffffffffffffffffffffffffffffffffffffffff1673ffffffffffffffffffffffffffffffffffffffff168152602001908152602001600020600101908051906020019061057a9291906117ca565b5081600260008673ffffffffffffffffffffffffffffffffffffffff1673ffffffffffffffffffffffffffffffffffffffff16815260200190815260200160002060020190805190602001906105d19291906117ca565b5080600260008673ffffffffffffffffffffffffffffffffffffffff1673ffffffffffffffffffffffffffffffffffffffff1681526020019081526020016000206003018190555050505050565b6003602052816000526040600020818154811061063b57600080fd5b90600052602060002090600802016000915091505080600001549080600101805461066590612480565b80601f016020809104026020016040519081016040528092919081815260200182805461069190612480565b80156106de5780601f106106b3576101008083540402835291602001916106de565b820191906000526020600020905b8154815290600101906020018083116106c157829003601f168201915b5050505050908060020154908060030154908060040180546106ff90612480565b80601f016020809104026020016040519081016040528092919081815260200182805461072b90612480565b80156107785780601f1061074d57610100808354040283529160200191610778565b820191906000526020600020905b81548152906001019060200180831161075b57829003601f168201915b5050505050908060050160009054906101000a900460ff16908060060154908060070160009054906101000a900473ffffffffffffffffffffffffffffffffffffffff16905088565b6060600480548060200260200160405190810160405280929190818152602001828054801561080f57602002820191906000526020600020905b8154815260200190600101908083116107fb575b5050505050905090565b60608060008054906101000a900473ffffffffffffffffffffffffffffffffffffffff1673ffffffffffffffffffffffffffffffffffffffff163373ffffffffffffffffffffffffffffffffffffffff16146108aa576040517f08c379a00000000000000000000000000000000000000000000000000000000081526004016108a1906124fe565b60405180910390fd5b600260008473ffffffffffffffffffffffffffffffffffffffff1673ffffffffffffffffffffffffffffffffffffffff16815260200190815260200160002060010180546108f790612480565b80601f016020809104026020016040519081016040528092919081815260200182805461092390612480565b80156109705780601f1061094557610100808354040283529160200191610970565b820191906000526020600020905b81548152906001019060200180831161095357829003601f168201915b50505050509150600260008473ffffffffffffffffffffffffffffffffffffffff1673ffffffffffffffffffffffffffffffffffffffff16815260200190815260200160002060020180546109c490612480565b80601f01602080910402602001604051908101604052809291908181526020018280546109f090612480565b8015610a3d5780601f10610a1257610100808354040283529160200191610a3d565b820191906000526020600020905b815481529060010190602001808311610a2057829003601f168201915b50505050509050915091565b600160009054906101000a900473ffffffffffffffffffffffffffffffffffffffff1681565b60606000600260003373ffffffffffffffffffffffffffffffffffffffff1673ffffffffffffffffffffffffffffffffffffffff1681526020019081526020016000206040518060800160405290816000820160009054906101000a900473ffffffffffffffffffffffffffffffffffffffff1673ffffffffffffffffffffffffffffffffffffffff1673ffffffffffffffffffffffffffffffffffffffff168152602001600182018054610b2390612480565b80601f0160208091040260200160405190810160405280929190818152602001828054610b4f90612480565b8015610b9c5780601f10610b7157610100808354040283529160200191610b9c565b820191906000526020600020905b815481529060010190602001808311610b7f57829003601f168201915b50505050508152602001600282018054610bb590612480565b80601f0160208091040260200160405190810160405280929190818152602001828054610be190612480565b8015610c2e5780601f10610c0357610100808354040283529160200191610c2e565b820191906000526020600020905b815481529060010190602001808311610c1157829003601f168201915b505050505081526020016003820154815250509050600060036000858152602001908152602001600020805490501415610c9d576040517f08c379a0000000000000000000000000000000000000000000000000000000008152600401610c949061256a565b60405180910390fd5b60036000848152602001908152602001600020805480602002602001604051908101604052809291908181526020016000905b82821015610ec257838290600052602060002090600802016040518061010001604052908160008201548152602001600182018054610d0e90612480565b80601f0160208091040260200160405190810160405280929190818152602001828054610d3a90612480565b8015610d875780601f10610d5c57610100808354040283529160200191610d87565b820191906000526020600020905b815481529060010190602001808311610d6a57829003601f168201915b505050505081526020016002820154815260200160038201548152602001600482018054610db490612480565b80601f0160208091040260200160405190810160405280929190818152602001828054610de090612480565b8015610e2d5780601f10610e0257610100808354040283529160200191610e2d565b820191906000526020600020905b815481529060010190602001808311610e1057829003601f168201915b505050505081526020016005820160009054906101000a900460ff1660ff1660ff168152602001600682015481526020016007820160009054906101000a900473ffffffffffffffffffffffffffffffffffffffff1673ffffffffffffffffffffffffffffffffffffffff1673ffffffffffffffffffffffffffffffffffffffff168152505081526020019060010190610cd0565b50505050915060005b6003600085815260200190815260200160002080549050811015610f75576001826060015114158015610f0357506002826060015114155b15610f61576040518060400160405280600981526020017f756e646566696e65640000000000000000000000000000000000000000000000815250838281518110610f5157610f5061258a565b5b6020026020010151602001819052505b600181610f6e91906125e8565b9050610ecb565b5050919050565b6000600260008373ffffffffffffffffffffffffffffffffffffffff1673ffffffffffffffffffffffffffffffffffffffff168152602001908152602001600020600301549050919050565b60026020528060005260406000206000915090508060000160009054906101000a900473ffffffffffffffffffffffffffffffffffffffff169080600101805461101190612480565b80601f016020809104026020016040519081016040528092919081815260200182805461103d90612480565b801561108a5780601f1061105f5761010080835404028352916020019161108a565b820191906000526020600020905b81548152906001019060200180831161106d57829003601f168201915b50505050509080600201805461109f90612480565b80601f01602080910402602001604051908101604052809291908181526020018280546110cb90612480565b80156111185780601f106110ed57610100808354040283529160200191611118565b820191906000526020600020905b8154815290600101906020018083116110fb57829003601f168201915b5050505050908060030154905084565b600060036000898152602001908152602001600020805490501415611266576001600260003373ffffffffffffffffffffffffffffffffffffffff1673ffffffffffffffffffffffffffffffffffffffff1681526020019081526020016000206003015414806111d9575060028060003373ffffffffffffffffffffffffffffffffffffffff1673ffffffffffffffffffffffffffffffffffffffff16815260200190815260200160002060030154145b8061122657506003600260003373ffffffffffffffffffffffffffffffffffffffff1673ffffffffffffffffffffffffffffffffffffffff16815260200190815260200160002060030154145b611265576040517f08c379a000000000000000000000000000000000000000000000000000000000815260040161125c906126d6565b60405180910390fd5b5b60008260ff16148061127b575060018260ff16145b6112ba576040517f08c379a00000000000000000000000000000000000000000000000000000000081526004016112b190612768565b60405180910390fd5b428111156112fd576040517f08c379a00000000000000000000000000000000000000000000000000000000081526004016112f4906127d4565b60405180910390fd5b60006003600089815260200190815260200160002080549050146114a85760006003600089815260200190815260200160002080549050905084600360008a815260200190815260200160002060018361135791906127f4565b815481106113685761136761258a565b5b906000526020600020906008020160030154111580156113ca575081600360008a81526020019081526020016000206001836113a491906127f4565b815481106113b5576113b461258a565b5b90600052602060002090600802016006015411155b611409576040517f08c379a00000000000000000000000000000000000000000000000000000000081526004016114009061289a565b60405180910390fd5b6000600360008a815260200190815260200160002060018361142b91906127f4565b8154811061143c5761143b61258a565b5b906000526020600020906008020160050160009054906101000a900460ff1660ff1614156114a65760006114a5576040517f08c379a000000000000000000000000000000000000000000000000000000000815260040161149c90612906565b60405180910390fd5b5b505b600360008881526020019081526020016000206040518061010001604052808981526020018881526020018781526020018681526020018581526020018460ff1681526020018381526020013373ffffffffffffffffffffffffffffffffffffffff16815250908060018154018082558091505060019003906000526020600020906008020160009091909190915060008201518160000155602082015181600101908051906020019061155d9291906117ca565b506040820151816002015560608201518160030155608082015181600401908051906020019061158e9291906117ca565b5060a08201518160050160006101000a81548160ff021916908360ff16021790555060c0820151816006015560e08201518160070160006101000a81548173ffffffffffffffffffffffffffffffffffffffff021916908373ffffffffffffffffffffffffffffffffffffffff1602179055505050600160009054906101000a900473ffffffffffffffffffffffffffffffffffffffff1673ffffffffffffffffffffffffffffffffffffffff1663a9059cbb336601c6bf526340006040518363ffffffff1660e01b8152600401611667929190612961565b6020604051808303816000875af1158015611686573d6000803e3d6000fd5b505050506040513d601f19601f820116820180604052508101906116aa91906129c2565b50600487908060018154018082558091505060019003906000526020600020016000909190919091505550505050505050565b600481815481106116ed57600080fd5b906000526020600020016000915090505481565b60008054906101000a900473ffffffffffffffffffffffffffffffffffffffff1681565b6000600160009054906101000a900473ffffffffffffffffffffffffffffffffffffffff1673ffffffffffffffffffffffffffffffffffffffff166370a08231836040518263ffffffff1660e01b81526004016117829190612286565b602060405180830381865afa15801561179f573d6000803e3d6000fd5b505050506040513d601f19601f820116820180604052508101906117c39190612a04565b9050919050565b8280546117d690612480565b90600052602060002090601f0160209004810192826117f8576000855561183f565b82601f1061181157805160ff191683800117855561183f565b8280016001018555821561183f579182015b8281111561183e578251825591602001919060010190611823565b5b50905061184c9190611850565b5090565b5b80821115611869576000816000905550600101611851565b5090565b6000604051905090565b600080fd5b600080fd5b600073ffffffffffffffffffffffffffffffffffffffff82169050919050565b60006118ac82611881565b9050919050565b6118bc816118a1565b81146118c757600080fd5b50565b6000813590506118d9816118b3565b92915050565b600080fd5b600080fd5b6000601f19601f8301169050919050565b7f4e487b7100000000000000000000000000000000000000000000000000000000600052604160045260246000fd5b611932826118e9565b810181811067ffffffffffffffff82111715611951576119506118fa565b5b80604052505050565b600061196461186d565b90506119708282611929565b919050565b600067ffffffffffffffff8211156119905761198f6118fa565b5b611999826118e9565b9050602081019050919050565b82818337600083830152505050565b60006119c86119c384611975565b61195a565b9050828152602081018484840111156119e4576119e36118e4565b5b6119ef8482856119a6565b509392505050565b600082601f830112611a0c57611a0b6118df565b5b8135611a1c8482602086016119b5565b91505092915050565b6000819050919050565b611a3881611a25565b8114611a4357600080fd5b50565b600081359050611a5581611a2f565b92915050565b60008060008060808587031215611a7557611a74611877565b5b6000611a83878288016118ca565b945050602085013567ffffffffffffffff811115611aa457611aa361187c565b5b611ab0878288016119f7565b935050604085013567ffffffffffffffff811115611ad157611ad061187c565b5b611add878288016119f7565b9250506060611aee87828801611a46565b91505092959194509250565b6000819050919050565b611b0d81611afa565b8114611b1857600080fd5b50565b600081359050611b2a81611b04565b92915050565b60008060408385031215611b4757611b46611877565b5b6000611b5585828601611b1b565b9250506020611b6685828601611a46565b9150509250929050565b611b7981611afa565b82525050565b600081519050919050565b600082825260208201905092915050565b60005b83811015611bb9578082015181840152602081019050611b9e565b83811115611bc8576000848401525b50505050565b6000611bd982611b7f565b611be38185611b8a565b9350611bf3818560208601611b9b565b611bfc816118e9565b840191505092915050565b611c1081611a25565b82525050565b600060ff82169050919050565b611c2c81611c16565b82525050565b611c3b816118a1565b82525050565b600061010082019050611c57600083018b611b70565b8181036020830152611c69818a611bce565b9050611c786040830189611c07565b611c856060830188611c07565b8181036080830152611c978187611bce565b9050611ca660a0830186611c23565b611cb360c0830185611c07565b611cc060e0830184611c32565b9998505050505050505050565b600081519050919050565b600082825260208201905092915050565b6000819050602082019050919050565b611d0281611afa565b82525050565b6000611d148383611cf9565b60208301905092915050565b6000602082019050919050565b6000611d3882611ccd565b611d428185611cd8565b9350611d4d83611ce9565b8060005b83811015611d7e578151611d658882611d08565b9750611d7083611d20565b925050600181019050611d51565b5085935050505092915050565b60006020820190508181036000830152611da58184611d2d565b905092915050565b600060208284031215611dc357611dc2611877565b5b6000611dd1848285016118ca565b91505092915050565b60006040820190508181036000830152611df48185611bce565b90508181036020830152611e088184611bce565b90509392505050565b6000819050919050565b6000611e36611e31611e2c84611881565b611e11565b611881565b9050919050565b6000611e4882611e1b565b9050919050565b6000611e5a82611e3d565b9050919050565b611e6a81611e4f565b82525050565b6000602082019050611e856000830184611e61565b92915050565b600060208284031215611ea157611ea0611877565b5b6000611eaf84828501611b1b565b91505092915050565b600081519050919050565b600082825260208201905092915050565b6000819050602082019050919050565b600082825260208201905092915050565b6000611f0082611b7f565b611f0a8185611ee4565b9350611f1a818560208601611b9b565b611f23816118e9565b840191505092915050565b611f3781611a25565b82525050565b611f4681611c16565b82525050565b611f55816118a1565b82525050565b600061010083016000830151611f746000860182611cf9565b5060208301518482036020860152611f8c8282611ef5565b9150506040830151611fa16040860182611f2e565b506060830151611fb46060860182611f2e565b5060808301518482036080860152611fcc8282611ef5565b91505060a0830151611fe160a0860182611f3d565b5060c0830151611ff460c0860182611f2e565b5060e083015161200760e0860182611f4c565b508091505092915050565b600061201e8383611f5b565b905092915050565b6000602082019050919050565b600061203e82611eb8565b6120488185611ec3565b93508360208202850161205a85611ed4565b8060005b8581101561209657848403895281516120778582612012565b945061208283612026565b925060208a0199505060018101905061205e565b50829750879550505050505092915050565b600060208201905081810360008301526120c28184612033565b905092915050565b60006020820190506120df6000830184611c07565b92915050565b60006080820190506120fa6000830187611c32565b818103602083015261210c8186611bce565b905081810360408301526121208185611bce565b905061212f6060830184611c07565b95945050505050565b61214181611c16565b811461214c57600080fd5b50565b60008135905061215e81612138565b92915050565b600080600080600080600060e0888a03121561218357612182611877565b5b60006121918a828b01611b1b565b975050602088013567ffffffffffffffff8111156121b2576121b161187c565b5b6121be8a828b016119f7565b96505060406121cf8a828b01611a46565b95505060606121e08a828b01611a46565b945050608088013567ffffffffffffffff8111156122015761220061187c565b5b61220d8a828b016119f7565b93505060a061221e8a828b0161214f565b92505060c061222f8a828b01611a46565b91505092959891949750929550565b60006020828403121561225457612253611877565b5b600061226284828501611a46565b91505092915050565b60006020820190506122806000830184611b70565b92915050565b600060208201905061229b6000830184611c32565b92915050565b7f4f6e6c792061646d696e2063616e206164642075736572732100000000000000600082015250565b60006122d7601983611b8a565b91506122e2826122a1565b602082019050919050565b60006020820190508181036000830152612306816122ca565b9050919050565b7f5573657220616c72656164792065786973747321000000000000000000000000600082015250565b6000612343601483611b8a565b915061234e8261230d565b602082019050919050565b6000602082019050818103600083015261237281612336565b9050919050565b7f4f6e6c79206f6e652061646d696e2063616e2065786973742100000000000000600082015250565b60006123af601983611b8a565b91506123ba82612379565b602082019050919050565b600060208201905081810360008301526123de816123a2565b9050919050565b7f456e7465722076616c696420747970655f696421000000000000000000000000600082015250565b600061241b601483611b8a565b9150612426826123e5565b602082019050919050565b6000602082019050818103600083015261244a8161240e565b9050919050565b7f4e487b7100000000000000000000000000000000000000000000000000000000600052602260045260246000fd5b6000600282049050600182168061249857607f821691505b602082108114156124ac576124ab612451565b5b50919050565b7f4f6e6c792061646d696e2063616e207365652075736572206e616d6573210000600082015250565b60006124e8601e83611b8a565b91506124f3826124b2565b602082019050919050565b60006020820190508181036000830152612517816124db565b9050919050565b7f4e6f2053616c6d6f6e20666f756e642100000000000000000000000000000000600082015250565b6000612554601083611b8a565b915061255f8261251e565b602082019050919050565b6000602082019050818103600083015261258381612547565b9050919050565b7f4e487b7100000000000000000000000000000000000000000000000000000000600052603260045260246000fd5b7f4e487b7100000000000000000000000000000000000000000000000000000000600052601160045260246000fd5b60006125f382611a25565b91506125fe83611a25565b9250827fffffffffffffffffffffffffffffffffffffffffffffffffffffffffffffffff03821115612633576126326125b9565b5b828201905092915050565b7f416464206669727374206669736820646174612063616e206265206d616e616760008201527f65642062792061646d696e2c207363696574697374206f7220617574686f726960208201527f7a6564206669736865726d616e00000000000000000000000000000000000000604082015250565b60006126c0604d83611b8a565b91506126cb8261263e565b606082019050919050565b600060208201905081810360008301526126ef816126b3565b9050919050565b7f546865726520617265206f6e6c792032207374617475736573202d3e2044656160008201527f64206f7220416c69766500000000000000000000000000000000000000000000602082015250565b6000612752602a83611b8a565b915061275d826126f6565b604082019050919050565b6000602082019050818103600083015261278181612745565b9050919050565b7f506c6561736520656e7465722076616c69642064617465210000000000000000600082015250565b60006127be601883611b8a565b91506127c982612788565b602082019050919050565b600060208201905081810360008301526127ed816127b1565b9050919050565b60006127ff82611a25565b915061280a83611a25565b92508282101561281d5761281c6125b9565b5b828203905092915050565b7f4461746120697320696e76616c696420666973682063616e277420736872696e60008201527f6b206f722062652063617567687420696e207061737421000000000000000000602082015250565b6000612884603783611b8a565b915061288f82612828565b604082019050919050565b600060208201905081810360008301526128b381612877565b9050919050565b7f596f752063616e6e6f74206368616e6765207468652064656164210000000000600082015250565b60006128f0601b83611b8a565b91506128fb826128ba565b602082019050919050565b6000602082019050818103600083015261291f816128e3565b9050919050565b6000819050919050565b600061294b61294661294184612926565b611e11565b611a25565b9050919050565b61295b81612930565b82525050565b60006040820190506129766000830185611c32565b6129836020830184612952565b9392505050565b60008115159050919050565b61299f8161298a565b81146129aa57600080fd5b50565b6000815190506129bc81612996565b92915050565b6000602082840312156129d8576129d7611877565b5b60006129e6848285016129ad565b91505092915050565b6000815190506129fe81611a2f565b92915050565b600060208284031215612a1a57612a19611877565b5b6000612a28848285016129ef565b9150509291505056fea264697066735822122069f5f180dd420c41569db2ee17e79205806b19d9b107c3b568cb1d1f843856af64736f6c634300080b0033",
  "immutableReferences": {},
  "source": "// SPDX-License-Identifier: GPL-3.0\r\npragma solidity >=0.7.0 <0.9.0;\r\nimport \"./Tether.sol\";\r\n\r\ncontract SalmonTrack {\r\n    struct Salmon {\r\n        bytes32 tracker_id;\r\n        string coordinate_url;\r\n        uint256 weight;\r\n        uint256 length;\r\n        string image_url;\r\n        uint8 status;\r\n        uint256 catch_time;\r\n        address catcher_id;\r\n    }\r\n\r\n    struct User {\r\n        address user_id;\r\n        string name;\r\n        string surname;\r\n        uint256 user_type;\r\n    }\r\n\r\n    address public admin;\r\n    Tether public tether;\r\n\r\n    mapping(address => User) public users;\r\n    mapping(bytes32 => Salmon[]) public salmons;\r\n\r\n    bytes32[] public salmonIds;\r\n\r\n    constructor(Tether _tether) {\r\n        tether = _tether;\r\n\r\n        admin = msg.sender;\r\n        users[admin].user_id = admin;\r\n        users[admin].name = \"Admin\";\r\n        users[admin].surname = \"Administrators\";\r\n        users[admin].user_type = 1;\r\n    }\r\n\r\n    function addNewUser(\r\n        address newUserID,\r\n        string memory name,\r\n        string memory surname,\r\n        uint256 user_type\r\n    ) public {\r\n        require(msg.sender == admin, \"Only admin can add users!\");\r\n        require(users[newUserID].user_id != newUserID, \"User already exists!\");\r\n        require(user_type != 1, \"Only one admin can exist!\");\r\n        require(\r\n            user_type > 1 && (user_type == 2 || user_type == 3),\r\n            \"Enter valid type_id!\"\r\n        );\r\n\r\n        users[newUserID].user_id = newUserID;\r\n        users[newUserID].name = name;\r\n        users[newUserID].surname = surname;\r\n        users[newUserID].user_type = user_type;\r\n    }\r\n\r\n    function getUserNameSurname(address user_id)\r\n        public\r\n        view\r\n        returns (string memory name, string memory surname)\r\n    {\r\n        require(msg.sender == admin, \"Only admin can see user names!\");\r\n        name = users[user_id].name;\r\n        surname = users[user_id].surname;\r\n    }\r\n\r\n    function getUserType(address user_id)\r\n        public\r\n        view\r\n        returns (uint256 userType)\r\n    {\r\n        userType = users[user_id].user_type;\r\n    }\r\n\r\n    function registerSalmon(\r\n        bytes32 tracker_id,\r\n        string memory coordinate_url,\r\n        uint256 weight,\r\n        uint256 length,\r\n        string memory image_url,\r\n        uint8 status,\r\n        uint256 catch_time\r\n    ) public {\r\n        if (salmons[tracker_id].length == 0) {\r\n            require(\r\n                (users[msg.sender].user_type == 1 ||  // Checking if user is scientist, admin or authorized fisherman\r\n                    users[msg.sender].user_type == 2 ||\r\n                    users[msg.sender].user_type == 3),\r\n                \"Add first fish data can be managed by admin, scietist or authorized fisherman\"\r\n            );\r\n        }\r\n\r\n        require(\r\n            status == 0 || status == 1,\r\n            \"There are only 2 statuses -> Dead or Alive\"\r\n        );\r\n\r\n        require(catch_time <= block.timestamp, \"Please enter valid date!\");\r\n\r\n        if (salmons[tracker_id].length != 0) { // Checking if Salmon with that tracker_id was registrated before\r\n            uint256 arrLength = salmons[tracker_id].length;\r\n\r\n            require(\r\n                salmons[tracker_id][arrLength - 1].length <= length &&\r\n                    salmons[tracker_id][arrLength - 1].catch_time <= catch_time, // If it was check if inputted new catch_time is not less than before\r\n                \"Data is invalid fish can't shrink or be caught in past!\"\r\n            );\r\n\r\n            if (salmons[tracker_id][arrLength - 1].status == 0) { // If Salmon was marked as dead before, then nothing can be done anymore \r\n                require(false, \"You cannot change the dead!\");\r\n            }\r\n        }\r\n\r\n        salmons[tracker_id].push(\r\n            Salmon(\r\n                tracker_id,\r\n                coordinate_url,\r\n                weight,\r\n                length,\r\n                image_url,\r\n                status,\r\n                catch_time,\r\n                msg.sender\r\n            )\r\n        );\r\n\r\n        tether.transfer(msg.sender, 500000000000000); // Getting reward (0.0005 eth) for registrating a fish\r\n        salmonIds.push(tracker_id);\r\n    }\r\n\r\n    function getSalmonData(bytes32 tracker_id)\r\n        public\r\n        view\r\n        returns (Salmon[] memory salmonData)\r\n    {\r\n        User memory user = users[msg.sender];\r\n\r\n        require(salmons[tracker_id].length != 0, \"No Salmon found!\");\r\n\r\n        salmonData = salmons[tracker_id];\r\n        for (uint i = 0; i < salmons[tracker_id].length; i = i + 1) {  // If user is not admin or scientist then do not send url containing location\r\n            if (user.user_type != 1 && user.user_type != 2) {\r\n                salmonData[i].coordinate_url = \"undefined\";\r\n            }\r\n        }\r\n    }\r\n\r\n    function getSalmonIds()\r\n        public\r\n        view\r\n        returns (bytes32[] memory salmonIdsArr)\r\n    {\r\n        salmonIdsArr = salmonIds;\r\n    }\r\n\r\n    function getBalance(address user_id) public view returns (uint256 balance) {\r\n        balance = tether.balanceOf(user_id);\r\n    }\r\n}\r\n",
  "sourcePath": "C:\\Users\\ricar\\OneDrive\\Desktop\\LU 7.sem\\Blokdes\\gala-darbs-rn18011\\src\\contracts\\SalmonTrack.sol",
  "compiler": {
    "name": "solc",
    "version": "0.8.11+commit.d7f03943.Emscripten.clang"
  },
  "schemaVersion": "3.4.4",
  "updatedAt": "2022-01-25T18:31:29.509Z",
  "networkType": "ethereum",
  "devdoc": {
    "kind": "dev",
    "methods": {},
    "version": 1
  },
  "userdoc": {
    "kind": "user",
    "methods": {},
    "version": 1
  }
}