{
  "contractName": "SalmonTrack",
  "abi": [
    {
      "inputs": [
        {
          "internalType": "contract Tether",
          "name": "_tether",
          "type": "address"
        }
      ],
      "stateMutability": "nonpayable",
      "type": "constructor"
    },
    {
      "inputs": [],
      "name": "admin",
      "outputs": [
        {
          "internalType": "address",
          "name": "",
          "type": "address"
        }
      ],
      "stateMutability": "view",
      "type": "function",
      "constant": true
    },
    {
      "inputs": [
        {
          "internalType": "uint256",
          "name": "",
          "type": "uint256"
        }
      ],
      "name": "salmonIds",
      "outputs": [
        {
          "internalType": "bytes32",
          "name": "",
          "type": "bytes32"
        }
      ],
      "stateMutability": "view",
      "type": "function",
      "constant": true
    },
    {
      "inputs": [
        {
          "internalType": "bytes32",
          "name": "",
          "type": "bytes32"
        },
        {
          "internalType": "uint256",
          "name": "",
          "type": "uint256"
        }
      ],
      "name": "salmons",
      "outputs": [
        {
          "internalType": "bytes32",
          "name": "tracker_id",
          "type": "bytes32"
        },
        {
          "internalType": "string",
          "name": "coordinate_url",
          "type": "string"
        },
        {
          "internalType": "uint256",
          "name": "weight",
          "type": "uint256"
        },
        {
          "internalType": "uint256",
          "name": "length",
          "type": "uint256"
        },
        {
          "internalType": "string",
          "name": "image_url",
          "type": "string"
        },
        {
          "internalType": "uint256",
          "name": "status",
          "type": "uint256"
        },
        {
          "internalType": "uint256",
          "name": "catch_time",
          "type": "uint256"
        },
        {
          "internalType": "address",
          "name": "catcher_id",
          "type": "address"
        }
      ],
      "stateMutability": "view",
      "type": "function",
      "constant": true
    },
    {
      "inputs": [],
      "name": "tether",
      "outputs": [
        {
          "internalType": "contract Tether",
          "name": "",
          "type": "address"
        }
      ],
      "stateMutability": "view",
      "type": "function",
      "constant": true
    },
    {
      "inputs": [
        {
          "internalType": "address",
          "name": "",
          "type": "address"
        }
      ],
      "name": "users",
      "outputs": [
        {
          "internalType": "address",
          "name": "user_id",
          "type": "address"
        },
        {
          "internalType": "string",
          "name": "name",
          "type": "string"
        },
        {
          "internalType": "string",
          "name": "surname",
          "type": "string"
        },
        {
          "internalType": "uint256",
          "name": "user_type",
          "type": "uint256"
        }
      ],
      "stateMutability": "view",
      "type": "function",
      "constant": true
    },
    {
      "inputs": [
        {
          "internalType": "address",
          "name": "newUserID",
          "type": "address"
        },
        {
          "internalType": "string",
          "name": "name",
          "type": "string"
        },
        {
          "internalType": "string",
          "name": "surname",
          "type": "string"
        },
        {
          "internalType": "uint256",
          "name": "user_type",
          "type": "uint256"
        }
      ],
      "name": "addNewUser",
      "outputs": [],
      "stateMutability": "nonpayable",
      "type": "function"
    },
    {
      "inputs": [
        {
          "internalType": "address",
          "name": "user_id",
          "type": "address"
        }
      ],
      "name": "getUserNameSurname",
      "outputs": [
        {
          "internalType": "string",
          "name": "name",
          "type": "string"
        },
        {
          "internalType": "string",
          "name": "surname",
          "type": "string"
        }
      ],
      "stateMutability": "view",
      "type": "function",
      "constant": true
    },
    {
      "inputs": [
        {
          "internalType": "address",
          "name": "user_id",
          "type": "address"
        }
      ],
      "name": "getUserType",
      "outputs": [
        {
          "internalType": "uint256",
          "name": "userType",
          "type": "uint256"
        }
      ],
      "stateMutability": "view",
      "type": "function",
      "constant": true
    },
    {
      "inputs": [
        {
          "internalType": "bytes32",
          "name": "tracker_id",
          "type": "bytes32"
        },
        {
          "internalType": "string",
          "name": "coordinate_url",
          "type": "string"
        },
        {
          "internalType": "uint256",
          "name": "weight",
          "type": "uint256"
        },
        {
          "internalType": "uint256",
          "name": "length",
          "type": "uint256"
        },
        {
          "internalType": "string",
          "name": "image_url",
          "type": "string"
        },
        {
          "internalType": "uint256",
          "name": "status",
          "type": "uint256"
        },
        {
          "internalType": "uint256",
          "name": "catch_time",
          "type": "uint256"
        }
      ],
      "name": "registerSalmon",
      "outputs": [],
      "stateMutability": "nonpayable",
      "type": "function"
    },
    {
      "inputs": [
        {
          "internalType": "bytes32",
          "name": "tracker_id",
          "type": "bytes32"
        }
      ],
      "name": "getSalmonData",
      "outputs": [
        {
          "components": [
            {
              "internalType": "bytes32",
              "name": "tracker_id",
              "type": "bytes32"
            },
            {
              "internalType": "string",
              "name": "coordinate_url",
              "type": "string"
            },
            {
              "internalType": "uint256",
              "name": "weight",
              "type": "uint256"
            },
            {
              "internalType": "uint256",
              "name": "length",
              "type": "uint256"
            },
            {
              "internalType": "string",
              "name": "image_url",
              "type": "string"
            },
            {
              "internalType": "uint256",
              "name": "status",
              "type": "uint256"
            },
            {
              "internalType": "uint256",
              "name": "catch_time",
              "type": "uint256"
            },
            {
              "internalType": "address",
              "name": "catcher_id",
              "type": "address"
            }
          ],
          "internalType": "struct SalmonTrack.Salmon[]",
          "name": "salmonData",
          "type": "tuple[]"
        }
      ],
      "stateMutability": "view",
      "type": "function",
      "constant": true
    },
    {
      "inputs": [],
      "name": "getSalmonIds",
      "outputs": [
        {
          "internalType": "bytes32[]",
          "name": "salmonIdsArr",
          "type": "bytes32[]"
        }
      ],
      "stateMutability": "view",
      "type": "function",
      "constant": true
    },
    {
      "inputs": [
        {
          "internalType": "address",
          "name": "user_id",
          "type": "address"
        }
      ],
      "name": "getBalance",
      "outputs": [
        {
          "internalType": "uint256",
          "name": "balance",
          "type": "uint256"
        }
      ],
      "stateMutability": "view",
      "type": "function",
      "constant": true
    }
  ],
  "bytecode": "0x60806040523480156200001157600080fd5b5060405162002edd38038062002edd833981810160405281019062000037919062000476565b80600160006101000a81548173ffffffffffffffffffffffffffffffffffffffff021916908373ffffffffffffffffffffffffffffffffffffffff160217905550336000806101000a81548173ffffffffffffffffffffffffffffffffffffffff021916908373ffffffffffffffffffffffffffffffffffffffff16021790555060008054906101000a900473ffffffffffffffffffffffffffffffffffffffff16600260008060009054906101000a900473ffffffffffffffffffffffffffffffffffffffff1673ffffffffffffffffffffffffffffffffffffffff1673ffffffffffffffffffffffffffffffffffffffff16815260200190815260200160002060000160006101000a81548173ffffffffffffffffffffffffffffffffffffffff021916908373ffffffffffffffffffffffffffffffffffffffff1602179055506040518060400160405280600581526020017f41646d696e000000000000000000000000000000000000000000000000000000815250600260008060009054906101000a900473ffffffffffffffffffffffffffffffffffffffff1673ffffffffffffffffffffffffffffffffffffffff1673ffffffffffffffffffffffffffffffffffffffff16815260200190815260200160002060010190805190602001906200022892919062000348565b506040518060400160405280600e81526020017f41646d696e6973747261746f7273000000000000000000000000000000000000815250600260008060009054906101000a900473ffffffffffffffffffffffffffffffffffffffff1673ffffffffffffffffffffffffffffffffffffffff1673ffffffffffffffffffffffffffffffffffffffff1681526020019081526020016000206002019080519060200190620002d792919062000348565b506001600260008060009054906101000a900473ffffffffffffffffffffffffffffffffffffffff1673ffffffffffffffffffffffffffffffffffffffff1673ffffffffffffffffffffffffffffffffffffffff16815260200190815260200160002060030181905550506200050d565b8280546200035690620004d7565b90600052602060002090601f0160209004810192826200037a5760008555620003c6565b82601f106200039557805160ff1916838001178555620003c6565b82800160010185558215620003c6579182015b82811115620003c5578251825591602001919060010190620003a8565b5b509050620003d59190620003d9565b5090565b5b80821115620003f4576000816000905550600101620003da565b5090565b600080fd5b600073ffffffffffffffffffffffffffffffffffffffff82169050919050565b60006200042a82620003fd565b9050919050565b60006200043e826200041d565b9050919050565b620004508162000431565b81146200045c57600080fd5b50565b600081519050620004708162000445565b92915050565b6000602082840312156200048f576200048e620003f8565b5b60006200049f848285016200045f565b91505092915050565b7f4e487b7100000000000000000000000000000000000000000000000000000000600052602260045260246000fd5b60006002820490506001821680620004f057607f821691505b60208210811415620005075762000506620004a8565b5b50919050565b6129c0806200051d6000396000f3fe608060405234801561001057600080fd5b50600436106100b45760003560e01c80638b3f863f116100715780638b3f863f146101a95780638fcb2b2e146101d9578063a87430ba146101f5578063f2e926ee14610228578063f851a44014610258578063f8b2cb4f14610276576100b4565b80631906cbaa146100b957806319cf2b28146100d5578063413844e31461010c5780635545a99f1461012a5780635efc071a1461015b57806378fde05e14610179575b600080fd5b6100d360048036038101906100ce9190611a0b565b6102a6565b005b6100ef60048036038101906100ea9190611ae0565b61061f565b604051610103989796959493929190611bd5565b60405180910390f35b6101146107b4565b6040516101219190611d1f565b60405180910390f35b610144600480360381019061013f9190611d41565b61080c565b604051610152929190611d6e565b60405180910390f35b610163610a3c565b6040516101709190611e04565b60405180910390f35b610193600480360381019061018e9190611e1f565b610a62565b6040516101a0919061202d565b60405180910390f35b6101c360048036038101906101be9190611d41565b610f5c565b6040516101d0919061204f565b60405180910390f35b6101f360048036038101906101ee919061206a565b610fa8565b005b61020f600480360381019061020a9190611d41565b61152d565b60405161021f9493929190612144565b60405180910390f35b610242600480360381019061023d9190612197565b61168d565b60405161024f91906121c4565b60405180910390f35b6102606116b1565b60405161026d91906121df565b60405180910390f35b610290600480360381019061028b9190611d41565b6116d5565b60405161029d919061204f565b60405180910390f35b60008054906101000a900473ffffffffffffffffffffffffffffffffffffffff1673ffffffffffffffffffffffffffffffffffffffff163373ffffffffffffffffffffffffffffffffffffffff1614610334576040517f08c379a000000000000000000000000000000000000000000000000000000000815260040161032b90612246565b60405180910390fd5b8373ffffffffffffffffffffffffffffffffffffffff16600260008673ffffffffffffffffffffffffffffffffffffffff1673ffffffffffffffffffffffffffffffffffffffff16815260200190815260200160002060000160009054906101000a900473ffffffffffffffffffffffffffffffffffffffff1673ffffffffffffffffffffffffffffffffffffffff161415610405576040517f08c379a00000000000000000000000000000000000000000000000000000000081526004016103fc906122b2565b60405180910390fd5b6001811415610449576040517f08c379a00000000000000000000000000000000000000000000000000000000081526004016104409061231e565b60405180910390fd5b600181118015610464575060028114806104635750600381145b5b6104a3576040517f08c379a000000000000000000000000000000000000000000000000000000000815260040161049a9061238a565b60405180910390fd5b83600260008673ffffffffffffffffffffffffffffffffffffffff1673ffffffffffffffffffffffffffffffffffffffff16815260200190815260200160002060000160006101000a81548173ffffffffffffffffffffffffffffffffffffffff021916908373ffffffffffffffffffffffffffffffffffffffff16021790555082600260008673ffffffffffffffffffffffffffffffffffffffff1673ffffffffffffffffffffffffffffffffffffffff168152602001908152602001600020600101908051906020019061057a92919061177a565b5081600260008673ffffffffffffffffffffffffffffffffffffffff1673ffffffffffffffffffffffffffffffffffffffff16815260200190815260200160002060020190805190602001906105d192919061177a565b5080600260008673ffffffffffffffffffffffffffffffffffffffff1673ffffffffffffffffffffffffffffffffffffffff1681526020019081526020016000206003018190555050505050565b6003602052816000526040600020818154811061063b57600080fd5b906000526020600020906008020160009150915050806000015490806001018054610665906123d9565b80601f0160208091040260200160405190810160405280929190818152602001828054610691906123d9565b80156106de5780601f106106b3576101008083540402835291602001916106de565b820191906000526020600020905b8154815290600101906020018083116106c157829003601f168201915b5050505050908060020154908060030154908060040180546106ff906123d9565b80601f016020809104026020016040519081016040528092919081815260200182805461072b906123d9565b80156107785780601f1061074d57610100808354040283529160200191610778565b820191906000526020600020905b81548152906001019060200180831161075b57829003601f168201915b5050505050908060050154908060060154908060070160009054906101000a900473ffffffffffffffffffffffffffffffffffffffff16905088565b6060600480548060200260200160405190810160405280929190818152602001828054801561080257602002820191906000526020600020905b8154815260200190600101908083116107ee575b5050505050905090565b60608060008054906101000a900473ffffffffffffffffffffffffffffffffffffffff1673ffffffffffffffffffffffffffffffffffffffff163373ffffffffffffffffffffffffffffffffffffffff161461089d576040517f08c379a000000000000000000000000000000000000000000000000000000000815260040161089490612457565b60405180910390fd5b600260008473ffffffffffffffffffffffffffffffffffffffff1673ffffffffffffffffffffffffffffffffffffffff16815260200190815260200160002060010180546108ea906123d9565b80601f0160208091040260200160405190810160405280929190818152602001828054610916906123d9565b80156109635780601f1061093857610100808354040283529160200191610963565b820191906000526020600020905b81548152906001019060200180831161094657829003601f168201915b50505050509150600260008473ffffffffffffffffffffffffffffffffffffffff1673ffffffffffffffffffffffffffffffffffffffff16815260200190815260200160002060020180546109b7906123d9565b80601f01602080910402602001604051908101604052809291908181526020018280546109e3906123d9565b8015610a305780601f10610a0557610100808354040283529160200191610a30565b820191906000526020600020905b815481529060010190602001808311610a1357829003601f168201915b50505050509050915091565b600160009054906101000a900473ffffffffffffffffffffffffffffffffffffffff1681565b60606000600260003373ffffffffffffffffffffffffffffffffffffffff1673ffffffffffffffffffffffffffffffffffffffff1681526020019081526020016000206040518060800160405290816000820160009054906101000a900473ffffffffffffffffffffffffffffffffffffffff1673ffffffffffffffffffffffffffffffffffffffff1673ffffffffffffffffffffffffffffffffffffffff168152602001600182018054610b16906123d9565b80601f0160208091040260200160405190810160405280929190818152602001828054610b42906123d9565b8015610b8f5780601f10610b6457610100808354040283529160200191610b8f565b820191906000526020600020905b815481529060010190602001808311610b7257829003601f168201915b50505050508152602001600282018054610ba8906123d9565b80601f0160208091040260200160405190810160405280929190818152602001828054610bd4906123d9565b8015610c215780601f10610bf657610100808354040283529160200191610c21565b820191906000526020600020905b815481529060010190602001808311610c0457829003601f168201915b505050505081526020016003820154815250509050600060036000858152602001908152602001600020805490501415610c90576040517f08c379a0000000000000000000000000000000000000000000000000000000008152600401610c87906124c3565b60405180910390fd5b60036000848152602001908152602001600020805480602002602001604051908101604052809291908181526020016000905b82821015610ea257838290600052602060002090600802016040518061010001604052908160008201548152602001600182018054610d01906123d9565b80601f0160208091040260200160405190810160405280929190818152602001828054610d2d906123d9565b8015610d7a5780601f10610d4f57610100808354040283529160200191610d7a565b820191906000526020600020905b815481529060010190602001808311610d5d57829003601f168201915b505050505081526020016002820154815260200160038201548152602001600482018054610da7906123d9565b80601f0160208091040260200160405190810160405280929190818152602001828054610dd3906123d9565b8015610e205780601f10610df557610100808354040283529160200191610e20565b820191906000526020600020905b815481529060010190602001808311610e0357829003601f168201915b5050505050815260200160058201548152602001600682015481526020016007820160009054906101000a900473ffffffffffffffffffffffffffffffffffffffff1673ffffffffffffffffffffffffffffffffffffffff1673ffffffffffffffffffffffffffffffffffffffff168152505081526020019060010190610cc3565b50505050915060005b6003600085815260200190815260200160002080549050811015610f55576001826060015114158015610ee357506002826060015114155b15610f41576040518060400160405280600981526020017f756e646566696e65640000000000000000000000000000000000000000000000815250838281518110610f3157610f306124e3565b5b6020026020010151602001819052505b600181610f4e9190612541565b9050610eab565b5050919050565b6000600260008373ffffffffffffffffffffffffffffffffffffffff1673ffffffffffffffffffffffffffffffffffffffff168152602001908152602001600020600301549050919050565b6000600360008981526020019081526020016000208054905014156110e6576001600260003373ffffffffffffffffffffffffffffffffffffffff1673ffffffffffffffffffffffffffffffffffffffff168152602001908152602001600020600301541480611059575060028060003373ffffffffffffffffffffffffffffffffffffffff1673ffffffffffffffffffffffffffffffffffffffff16815260200190815260200160002060030154145b806110a657506003600260003373ffffffffffffffffffffffffffffffffffffffff1673ffffffffffffffffffffffffffffffffffffffff16815260200190815260200160002060030154145b6110e5576040517f08c379a00000000000000000000000000000000000000000000000000000000081526004016110dc9061262f565b60405180910390fd5b5b60008214806110f55750600182145b611134576040517f08c379a000000000000000000000000000000000000000000000000000000000815260040161112b906126c1565b60405180910390fd5b42811115611177576040517f08c379a000000000000000000000000000000000000000000000000000000000815260040161116e9061272d565b60405180910390fd5b60006003600089815260200190815260200160002080549050146113125760006003600089815260200190815260200160002080549050905084600360008a81526020019081526020016000206001836111d1919061274d565b815481106111e2576111e16124e3565b5b90600052602060002090600802016003015411158015611244575081600360008a815260200190815260200160002060018361121e919061274d565b8154811061122f5761122e6124e3565b5b90600052602060002090600802016006015411155b611283576040517f08c379a000000000000000000000000000000000000000000000000000000000815260040161127a906127f3565b60405180910390fd5b6000600360008a81526020019081526020016000206001836112a5919061274d565b815481106112b6576112b56124e3565b5b906000526020600020906008020160050154141561131057600061130f576040517f08c379a00000000000000000000000000000000000000000000000000000000081526004016113069061285f565b60405180910390fd5b5b505b600360008881526020019081526020016000206040518061010001604052808981526020018881526020018781526020018681526020018581526020018481526020018381526020013373ffffffffffffffffffffffffffffffffffffffff1681525090806001815401808255809150506001900390600052602060002090600802016000909190919091506000820151816000015560208201518160010190805190602001906113c492919061177a565b50604082015181600201556060820151816003015560808201518160040190805190602001906113f592919061177a565b5060a0820151816005015560c0820151816006015560e08201518160070160006101000a81548173ffffffffffffffffffffffffffffffffffffffff021916908373ffffffffffffffffffffffffffffffffffffffff1602179055505050600160009054906101000a900473ffffffffffffffffffffffffffffffffffffffff1673ffffffffffffffffffffffffffffffffffffffff1663a9059cbb336601c6bf526340006040518363ffffffff1660e01b81526004016114b79291906128ba565b6020604051808303816000875af11580156114d6573d6000803e3d6000fd5b505050506040513d601f19601f820116820180604052508101906114fa919061291b565b50600487908060018154018082558091505060019003906000526020600020016000909190919091505550505050505050565b60026020528060005260406000206000915090508060000160009054906101000a900473ffffffffffffffffffffffffffffffffffffffff1690806001018054611576906123d9565b80601f01602080910402602001604051908101604052809291908181526020018280546115a2906123d9565b80156115ef5780601f106115c4576101008083540402835291602001916115ef565b820191906000526020600020905b8154815290600101906020018083116115d257829003601f168201915b505050505090806002018054611604906123d9565b80601f0160208091040260200160405190810160405280929190818152602001828054611630906123d9565b801561167d5780601f106116525761010080835404028352916020019161167d565b820191906000526020600020905b81548152906001019060200180831161166057829003601f168201915b5050505050908060030154905084565b6004818154811061169d57600080fd5b906000526020600020016000915090505481565b60008054906101000a900473ffffffffffffffffffffffffffffffffffffffff1681565b6000600160009054906101000a900473ffffffffffffffffffffffffffffffffffffffff1673ffffffffffffffffffffffffffffffffffffffff166370a08231836040518263ffffffff1660e01b815260040161173291906121df565b602060405180830381865afa15801561174f573d6000803e3d6000fd5b505050506040513d601f19601f82011682018060405250810190611773919061295d565b9050919050565b828054611786906123d9565b90600052602060002090601f0160209004810192826117a857600085556117ef565b82601f106117c157805160ff19168380011785556117ef565b828001600101855582156117ef579182015b828111156117ee5782518255916020019190600101906117d3565b5b5090506117fc9190611800565b5090565b5b80821115611819576000816000905550600101611801565b5090565b6000604051905090565b600080fd5b600080fd5b600073ffffffffffffffffffffffffffffffffffffffff82169050919050565b600061185c82611831565b9050919050565b61186c81611851565b811461187757600080fd5b50565b60008135905061188981611863565b92915050565b600080fd5b600080fd5b6000601f19601f8301169050919050565b7f4e487b7100000000000000000000000000000000000000000000000000000000600052604160045260246000fd5b6118e282611899565b810181811067ffffffffffffffff82111715611901576119006118aa565b5b80604052505050565b600061191461181d565b905061192082826118d9565b919050565b600067ffffffffffffffff8211156119405761193f6118aa565b5b61194982611899565b9050602081019050919050565b82818337600083830152505050565b600061197861197384611925565b61190a565b90508281526020810184848401111561199457611993611894565b5b61199f848285611956565b509392505050565b600082601f8301126119bc576119bb61188f565b5b81356119cc848260208601611965565b91505092915050565b6000819050919050565b6119e8816119d5565b81146119f357600080fd5b50565b600081359050611a05816119df565b92915050565b60008060008060808587031215611a2557611a24611827565b5b6000611a338782880161187a565b945050602085013567ffffffffffffffff811115611a5457611a5361182c565b5b611a60878288016119a7565b935050604085013567ffffffffffffffff811115611a8157611a8061182c565b5b611a8d878288016119a7565b9250506060611a9e878288016119f6565b91505092959194509250565b6000819050919050565b611abd81611aaa565b8114611ac857600080fd5b50565b600081359050611ada81611ab4565b92915050565b60008060408385031215611af757611af6611827565b5b6000611b0585828601611acb565b9250506020611b16858286016119f6565b9150509250929050565b611b2981611aaa565b82525050565b600081519050919050565b600082825260208201905092915050565b60005b83811015611b69578082015181840152602081019050611b4e565b83811115611b78576000848401525b50505050565b6000611b8982611b2f565b611b938185611b3a565b9350611ba3818560208601611b4b565b611bac81611899565b840191505092915050565b611bc0816119d5565b82525050565b611bcf81611851565b82525050565b600061010082019050611beb600083018b611b20565b8181036020830152611bfd818a611b7e565b9050611c0c6040830189611bb7565b611c196060830188611bb7565b8181036080830152611c2b8187611b7e565b9050611c3a60a0830186611bb7565b611c4760c0830185611bb7565b611c5460e0830184611bc6565b9998505050505050505050565b600081519050919050565b600082825260208201905092915050565b6000819050602082019050919050565b611c9681611aaa565b82525050565b6000611ca88383611c8d565b60208301905092915050565b6000602082019050919050565b6000611ccc82611c61565b611cd68185611c6c565b9350611ce183611c7d565b8060005b83811015611d12578151611cf98882611c9c565b9750611d0483611cb4565b925050600181019050611ce5565b5085935050505092915050565b60006020820190508181036000830152611d398184611cc1565b905092915050565b600060208284031215611d5757611d56611827565b5b6000611d658482850161187a565b91505092915050565b60006040820190508181036000830152611d888185611b7e565b90508181036020830152611d9c8184611b7e565b90509392505050565b6000819050919050565b6000611dca611dc5611dc084611831565b611da5565b611831565b9050919050565b6000611ddc82611daf565b9050919050565b6000611dee82611dd1565b9050919050565b611dfe81611de3565b82525050565b6000602082019050611e196000830184611df5565b92915050565b600060208284031215611e3557611e34611827565b5b6000611e4384828501611acb565b91505092915050565b600081519050919050565b600082825260208201905092915050565b6000819050602082019050919050565b600082825260208201905092915050565b6000611e9482611b2f565b611e9e8185611e78565b9350611eae818560208601611b4b565b611eb781611899565b840191505092915050565b611ecb816119d5565b82525050565b611eda81611851565b82525050565b600061010083016000830151611ef96000860182611c8d565b5060208301518482036020860152611f118282611e89565b9150506040830151611f266040860182611ec2565b506060830151611f396060860182611ec2565b5060808301518482036080860152611f518282611e89565b91505060a0830151611f6660a0860182611ec2565b5060c0830151611f7960c0860182611ec2565b5060e0830151611f8c60e0860182611ed1565b508091505092915050565b6000611fa38383611ee0565b905092915050565b6000602082019050919050565b6000611fc382611e4c565b611fcd8185611e57565b935083602082028501611fdf85611e68565b8060005b8581101561201b5784840389528151611ffc8582611f97565b945061200783611fab565b925060208a01995050600181019050611fe3565b50829750879550505050505092915050565b600060208201905081810360008301526120478184611fb8565b905092915050565b60006020820190506120646000830184611bb7565b92915050565b600080600080600080600060e0888a03121561208957612088611827565b5b60006120978a828b01611acb565b975050602088013567ffffffffffffffff8111156120b8576120b761182c565b5b6120c48a828b016119a7565b96505060406120d58a828b016119f6565b95505060606120e68a828b016119f6565b945050608088013567ffffffffffffffff8111156121075761210661182c565b5b6121138a828b016119a7565b93505060a06121248a828b016119f6565b92505060c06121358a828b016119f6565b91505092959891949750929550565b60006080820190506121596000830187611bc6565b818103602083015261216b8186611b7e565b9050818103604083015261217f8185611b7e565b905061218e6060830184611bb7565b95945050505050565b6000602082840312156121ad576121ac611827565b5b60006121bb848285016119f6565b91505092915050565b60006020820190506121d96000830184611b20565b92915050565b60006020820190506121f46000830184611bc6565b92915050565b7f4f6e6c792061646d696e2063616e206164642075736572732100000000000000600082015250565b6000612230601983611b3a565b915061223b826121fa565b602082019050919050565b6000602082019050818103600083015261225f81612223565b9050919050565b7f5573657220616c72656164792065786973747321000000000000000000000000600082015250565b600061229c601483611b3a565b91506122a782612266565b602082019050919050565b600060208201905081810360008301526122cb8161228f565b9050919050565b7f4f6e6c79206f6e652061646d696e2063616e2065786973742100000000000000600082015250565b6000612308601983611b3a565b9150612313826122d2565b602082019050919050565b60006020820190508181036000830152612337816122fb565b9050919050565b7f456e7465722076616c696420747970655f696421000000000000000000000000600082015250565b6000612374601483611b3a565b915061237f8261233e565b602082019050919050565b600060208201905081810360008301526123a381612367565b9050919050565b7f4e487b7100000000000000000000000000000000000000000000000000000000600052602260045260246000fd5b600060028204905060018216806123f157607f821691505b60208210811415612405576124046123aa565b5b50919050565b7f4f6e6c792061646d696e2063616e207365652075736572206e616d6573210000600082015250565b6000612441601e83611b3a565b915061244c8261240b565b602082019050919050565b6000602082019050818103600083015261247081612434565b9050919050565b7f4e6f2053616c6d6f6e20666f756e642100000000000000000000000000000000600082015250565b60006124ad601083611b3a565b91506124b882612477565b602082019050919050565b600060208201905081810360008301526124dc816124a0565b9050919050565b7f4e487b7100000000000000000000000000000000000000000000000000000000600052603260045260246000fd5b7f4e487b7100000000000000000000000000000000000000000000000000000000600052601160045260246000fd5b600061254c826119d5565b9150612557836119d5565b9250827fffffffffffffffffffffffffffffffffffffffffffffffffffffffffffffffff0382111561258c5761258b612512565b5b828201905092915050565b7f416464206669727374206669736820646174612063616e206265206d616e616760008201527f65642062792061646d696e2c207363696574697374206f7220617574686f726960208201527f7a6564206669736865726d616e00000000000000000000000000000000000000604082015250565b6000612619604d83611b3a565b915061262482612597565b606082019050919050565b600060208201905081810360008301526126488161260c565b9050919050565b7f5468657265206973206f6e6c792032207374617475736573202d3e204465616460008201527f206f7220416c6976650000000000000000000000000000000000000000000000602082015250565b60006126ab602983611b3a565b91506126b68261264f565b604082019050919050565b600060208201905081810360008301526126da8161269e565b9050919050565b7f506c6561736520656e7465722076616c69642064617465210000000000000000600082015250565b6000612717601883611b3a565b9150612722826126e1565b602082019050919050565b600060208201905081810360008301526127468161270a565b9050919050565b6000612758826119d5565b9150612763836119d5565b92508282101561277657612775612512565b5b828203905092915050565b7f4461746120697320696e76616c696420666973682063616e277420736872696e60008201527f6b206f722062652063617567687420696e207061737421000000000000000000602082015250565b60006127dd603783611b3a565b91506127e882612781565b604082019050919050565b6000602082019050818103600083015261280c816127d0565b9050919050565b7f596f752063616e6e6f74206368616e6765207468652064656164210000000000600082015250565b6000612849601b83611b3a565b915061285482612813565b602082019050919050565b600060208201905081810360008301526128788161283c565b9050919050565b6000819050919050565b60006128a461289f61289a8461287f565b611da5565b6119d5565b9050919050565b6128b481612889565b82525050565b60006040820190506128cf6000830185611bc6565b6128dc60208301846128ab565b9392505050565b60008115159050919050565b6128f8816128e3565b811461290357600080fd5b50565b600081519050612915816128ef565b92915050565b60006020828403121561293157612930611827565b5b600061293f84828501612906565b91505092915050565b600081519050612957816119df565b92915050565b60006020828403121561297357612972611827565b5b600061298184828501612948565b9150509291505056fea2646970667358221220a37661e1daf82b43ed5be1895467dc74077c1cec778e96c193237b8d0ef637bd64736f6c634300080b0033",
  "immutableReferences": {},
  "source": "// SPDX-License-Identifier: GPL-3.0\r\npragma solidity >=0.7.0 <0.9.0;\r\nimport \"./Tether.sol\";\r\n\r\ncontract SalmonTrack {\r\n    struct Salmon {\r\n        bytes32 tracker_id;\r\n        string coordinate_url;\r\n        uint256 weight;\r\n        uint256 length;\r\n        string image_url;\r\n        uint256 status;\r\n        uint256 catch_time;\r\n        address catcher_id;\r\n    }\r\n\r\n    struct User {\r\n        address user_id;\r\n        string name;\r\n        string surname;\r\n        uint256 user_type;\r\n    }\r\n\r\n    address public admin;\r\n    Tether public tether;\r\n\r\n    mapping(address => User) public users;\r\n    mapping(bytes32 => Salmon[]) public salmons;\r\n\r\n    bytes32[] public salmonIds;\r\n\r\n    constructor(Tether _tether) {\r\n        tether = _tether;\r\n\r\n        admin = msg.sender;\r\n        users[admin].user_id = admin;\r\n        users[admin].name = \"Admin\";\r\n        users[admin].surname = \"Administrators\";\r\n        users[admin].user_type = 1;\r\n    }\r\n\r\n    function addNewUser(\r\n        address newUserID,\r\n        string memory name,\r\n        string memory surname,\r\n        uint256 user_type\r\n    ) public {\r\n        require(msg.sender == admin, \"Only admin can add users!\");\r\n        require(users[newUserID].user_id != newUserID, \"User already exists!\");\r\n        require(user_type != 1, \"Only one admin can exist!\");\r\n        require(\r\n            user_type > 1 && (user_type == 2 || user_type == 3),\r\n            \"Enter valid type_id!\"\r\n        );\r\n\r\n        users[newUserID].user_id = newUserID;\r\n        users[newUserID].name = name;\r\n        users[newUserID].surname = surname;\r\n        users[newUserID].user_type = user_type;\r\n    }\r\n\r\n    function getUserNameSurname(address user_id)\r\n        public\r\n        view\r\n        returns (string memory name, string memory surname)\r\n    {\r\n        require(msg.sender == admin, \"Only admin can see user names!\");\r\n        name = users[user_id].name;\r\n        surname = users[user_id].surname;\r\n    }\r\n\r\n    function getUserType(address user_id)\r\n        public\r\n        view\r\n        returns (uint256 userType)\r\n    {\r\n        userType = users[user_id].user_type;\r\n    }\r\n\r\n    function registerSalmon(\r\n        bytes32 tracker_id,\r\n        string memory coordinate_url,\r\n        uint256 weight,\r\n        uint256 length,\r\n        string memory image_url,\r\n        uint256 status,\r\n        uint256 catch_time\r\n    ) public {\r\n        if (salmons[tracker_id].length == 0) {\r\n            require(\r\n                (users[msg.sender].user_type == 1 ||\r\n                    users[msg.sender].user_type == 2 ||\r\n                    users[msg.sender].user_type == 3),\r\n                \"Add first fish data can be managed by admin, scietist or authorized fisherman\"\r\n            );\r\n        }\r\n\r\n        require(\r\n            status == 0 || status == 1,\r\n            \"There is only 2 statuses -> Dead or Alive\"\r\n        );\r\n\r\n        require(catch_time <= block.timestamp, \"Please enter valid date!\");\r\n\r\n        if (salmons[tracker_id].length != 0) {\r\n            uint256 arrLength = salmons[tracker_id].length;\r\n\r\n            require(\r\n                salmons[tracker_id][arrLength - 1].length <= length &&\r\n                    salmons[tracker_id][arrLength - 1].catch_time <= catch_time,\r\n                \"Data is invalid fish can't shrink or be caught in past!\"\r\n            );\r\n\r\n            if (salmons[tracker_id][arrLength - 1].status == 0) {\r\n                require(false, \"You cannot change the dead!\");\r\n            }\r\n        }\r\n\r\n        salmons[tracker_id].push(\r\n            Salmon(\r\n                tracker_id,\r\n                coordinate_url,\r\n                weight,\r\n                length,\r\n                image_url,\r\n                status,\r\n                catch_time,\r\n                msg.sender\r\n            )\r\n        );\r\n\r\n        tether.transfer(msg.sender, 500000000000000); // Getting reward (0.0005 eth) for registrating a fish\r\n        salmonIds.push(tracker_id);\r\n    }\r\n\r\n    function getSalmonData(bytes32 tracker_id)\r\n        public\r\n        view\r\n        returns (Salmon[] memory salmonData)\r\n    {\r\n        User memory user = users[msg.sender];\r\n\r\n        require(salmons[tracker_id].length != 0, \"No Salmon found!\");\r\n\r\n        salmonData = salmons[tracker_id];\r\n        for (uint256 i = 0; i < salmons[tracker_id].length; i = i + 1) {\r\n            if (user.user_type != 1 && user.user_type != 2) {\r\n                salmonData[i].coordinate_url = \"undefined\";\r\n            }\r\n        }\r\n    }\r\n\r\n    function getSalmonIds()\r\n        public\r\n        view\r\n        returns (bytes32[] memory salmonIdsArr)\r\n    {\r\n        salmonIdsArr = salmonIds;\r\n    }\r\n\r\n    function getBalance(address user_id) public view returns (uint256 balance) {\r\n        balance = tether.balanceOf(user_id);\r\n    }\r\n}\r\n",
  "sourcePath": "C:\\Users\\ricar\\OneDrive\\Desktop\\LU 7.sem\\Blokdes\\gala-darbs-rn18011\\src\\contracts\\SalmonTrack.sol",
  "compiler": {
    "name": "solc",
    "version": "0.8.11+commit.d7f03943.Emscripten.clang"
  },
  "schemaVersion": "3.4.4",
  "updatedAt": "2022-01-24T03:12:10.112Z",
  "networkType": "ethereum",
  "devdoc": {
    "kind": "dev",
    "methods": {},
    "version": 1
  },
  "userdoc": {
    "kind": "user",
    "methods": {},
    "version": 1
  }
}