{
  "contractName": "SalmonTrack",
  "abi": [
    {
      "inputs": [
        {
          "internalType": "contract Tether",
          "name": "_tether",
          "type": "address"
        }
      ],
      "stateMutability": "nonpayable",
      "type": "constructor"
    },
    {
      "inputs": [],
      "name": "admin",
      "outputs": [
        {
          "internalType": "address",
          "name": "",
          "type": "address"
        }
      ],
      "stateMutability": "view",
      "type": "function",
      "constant": true
    },
    {
      "inputs": [
        {
          "internalType": "uint256",
          "name": "",
          "type": "uint256"
        }
      ],
      "name": "salmonIds",
      "outputs": [
        {
          "internalType": "bytes32",
          "name": "",
          "type": "bytes32"
        }
      ],
      "stateMutability": "view",
      "type": "function",
      "constant": true
    },
    {
      "inputs": [
        {
          "internalType": "bytes32",
          "name": "",
          "type": "bytes32"
        }
      ],
      "name": "salmons",
      "outputs": [
        {
          "internalType": "bytes32",
          "name": "tracker_id",
          "type": "bytes32"
        },
        {
          "internalType": "string",
          "name": "coordinate_url",
          "type": "string"
        },
        {
          "internalType": "uint256",
          "name": "weight",
          "type": "uint256"
        },
        {
          "internalType": "uint256",
          "name": "length",
          "type": "uint256"
        },
        {
          "internalType": "string",
          "name": "image_url",
          "type": "string"
        },
        {
          "internalType": "uint256",
          "name": "status",
          "type": "uint256"
        },
        {
          "internalType": "uint256",
          "name": "catch_time",
          "type": "uint256"
        },
        {
          "internalType": "address",
          "name": "catcher_id",
          "type": "address"
        }
      ],
      "stateMutability": "view",
      "type": "function",
      "constant": true
    },
    {
      "inputs": [],
      "name": "tether",
      "outputs": [
        {
          "internalType": "contract Tether",
          "name": "",
          "type": "address"
        }
      ],
      "stateMutability": "view",
      "type": "function",
      "constant": true
    },
    {
      "inputs": [
        {
          "internalType": "address",
          "name": "",
          "type": "address"
        }
      ],
      "name": "users",
      "outputs": [
        {
          "internalType": "address",
          "name": "user_id",
          "type": "address"
        },
        {
          "internalType": "string",
          "name": "name",
          "type": "string"
        },
        {
          "internalType": "string",
          "name": "surname",
          "type": "string"
        },
        {
          "internalType": "uint256",
          "name": "user_type",
          "type": "uint256"
        }
      ],
      "stateMutability": "view",
      "type": "function",
      "constant": true
    },
    {
      "inputs": [
        {
          "internalType": "address",
          "name": "newUserID",
          "type": "address"
        },
        {
          "internalType": "string",
          "name": "name",
          "type": "string"
        },
        {
          "internalType": "string",
          "name": "surname",
          "type": "string"
        },
        {
          "internalType": "uint256",
          "name": "user_type",
          "type": "uint256"
        }
      ],
      "name": "addNewUser",
      "outputs": [
        {
          "internalType": "address",
          "name": "sender",
          "type": "address"
        }
      ],
      "stateMutability": "nonpayable",
      "type": "function"
    },
    {
      "inputs": [
        {
          "internalType": "address",
          "name": "user_id",
          "type": "address"
        }
      ],
      "name": "getUserNameSurname",
      "outputs": [
        {
          "internalType": "string",
          "name": "name",
          "type": "string"
        },
        {
          "internalType": "string",
          "name": "surname",
          "type": "string"
        }
      ],
      "stateMutability": "view",
      "type": "function",
      "constant": true
    },
    {
      "inputs": [
        {
          "internalType": "address",
          "name": "user_id",
          "type": "address"
        }
      ],
      "name": "getUserType",
      "outputs": [
        {
          "internalType": "uint256",
          "name": "userType",
          "type": "uint256"
        }
      ],
      "stateMutability": "view",
      "type": "function",
      "constant": true
    },
    {
      "inputs": [
        {
          "internalType": "bytes32",
          "name": "tracker_id",
          "type": "bytes32"
        },
        {
          "internalType": "string",
          "name": "coordinate_url",
          "type": "string"
        },
        {
          "internalType": "uint256",
          "name": "weight",
          "type": "uint256"
        },
        {
          "internalType": "uint256",
          "name": "length",
          "type": "uint256"
        },
        {
          "internalType": "string",
          "name": "image_url",
          "type": "string"
        },
        {
          "internalType": "uint256",
          "name": "status",
          "type": "uint256"
        },
        {
          "internalType": "uint256",
          "name": "catch_time",
          "type": "uint256"
        }
      ],
      "name": "registerSalmon",
      "outputs": [],
      "stateMutability": "nonpayable",
      "type": "function"
    },
    {
      "inputs": [
        {
          "internalType": "bytes32",
          "name": "tracker_id",
          "type": "bytes32"
        }
      ],
      "name": "getSalmonData",
      "outputs": [
        {
          "internalType": "string",
          "name": "coordinate_url",
          "type": "string"
        },
        {
          "internalType": "uint256",
          "name": "weight",
          "type": "uint256"
        },
        {
          "internalType": "uint256",
          "name": "length",
          "type": "uint256"
        },
        {
          "internalType": "string",
          "name": "image_url",
          "type": "string"
        },
        {
          "internalType": "uint256",
          "name": "status",
          "type": "uint256"
        },
        {
          "internalType": "uint256",
          "name": "catch_time",
          "type": "uint256"
        },
        {
          "internalType": "address",
          "name": "catcher_id",
          "type": "address"
        }
      ],
      "stateMutability": "view",
      "type": "function",
      "constant": true
    },
    {
      "inputs": [
        {
          "internalType": "address",
          "name": "user_id",
          "type": "address"
        }
      ],
      "name": "getBalance",
      "outputs": [
        {
          "internalType": "uint256",
          "name": "balance",
          "type": "uint256"
        }
      ],
      "stateMutability": "view",
      "type": "function",
      "constant": true
    }
  ],
  "bytecode": "0x60806040523480156200001157600080fd5b506040516200246038038062002460833981810160405281019062000037919062000476565b80600160006101000a81548173ffffffffffffffffffffffffffffffffffffffff021916908373ffffffffffffffffffffffffffffffffffffffff160217905550336000806101000a81548173ffffffffffffffffffffffffffffffffffffffff021916908373ffffffffffffffffffffffffffffffffffffffff16021790555060008054906101000a900473ffffffffffffffffffffffffffffffffffffffff16600260008060009054906101000a900473ffffffffffffffffffffffffffffffffffffffff1673ffffffffffffffffffffffffffffffffffffffff1673ffffffffffffffffffffffffffffffffffffffff16815260200190815260200160002060000160006101000a81548173ffffffffffffffffffffffffffffffffffffffff021916908373ffffffffffffffffffffffffffffffffffffffff1602179055506040518060400160405280600581526020017f41646d696e000000000000000000000000000000000000000000000000000000815250600260008060009054906101000a900473ffffffffffffffffffffffffffffffffffffffff1673ffffffffffffffffffffffffffffffffffffffff1673ffffffffffffffffffffffffffffffffffffffff16815260200190815260200160002060010190805190602001906200022892919062000348565b506040518060400160405280600e81526020017f41646d696e6973747261746f7273000000000000000000000000000000000000815250600260008060009054906101000a900473ffffffffffffffffffffffffffffffffffffffff1673ffffffffffffffffffffffffffffffffffffffff1673ffffffffffffffffffffffffffffffffffffffff1681526020019081526020016000206002019080519060200190620002d792919062000348565b506001600260008060009054906101000a900473ffffffffffffffffffffffffffffffffffffffff1673ffffffffffffffffffffffffffffffffffffffff1673ffffffffffffffffffffffffffffffffffffffff16815260200190815260200160002060030181905550506200050d565b8280546200035690620004d7565b90600052602060002090601f0160209004810192826200037a5760008555620003c6565b82601f106200039557805160ff1916838001178555620003c6565b82800160010185558215620003c6579182015b82811115620003c5578251825591602001919060010190620003a8565b5b509050620003d59190620003d9565b5090565b5b80821115620003f4576000816000905550600101620003da565b5090565b600080fd5b600073ffffffffffffffffffffffffffffffffffffffff82169050919050565b60006200042a82620003fd565b9050919050565b60006200043e826200041d565b9050919050565b620004508162000431565b81146200045c57600080fd5b50565b600081519050620004708162000445565b92915050565b6000602082840312156200048f576200048e620003f8565b5b60006200049f848285016200045f565b91505092915050565b7f4e487b7100000000000000000000000000000000000000000000000000000000600052602260045260246000fd5b60006002820490506001821680620004f057607f821691505b60208210811415620005075762000506620004a8565b5b50919050565b611f43806200051d6000396000f3fe608060405234801561001057600080fd5b50600436106100a95760003560e01c80638b3f863f116100715780638b3f863f1461019a5780638fcb2b2e146101ca578063a87430ba146101e6578063f2e926ee14610219578063f851a44014610249578063f8b2cb4f14610267576100a9565b80630cfc40fd146100ae5780631906cbaa146100e55780635545a99f146101155780635efc071a1461014657806378fde05e14610164575b600080fd5b6100c860048036038101906100c3919061144c565b610297565b6040516100dc98979695949392919061157b565b60405180910390f35b6100ff60048036038101906100fa9190611794565b61040f565b60405161010c9190611833565b60405180910390f35b61012f600480360381019061012a919061184e565b610779565b60405161013d92919061187b565b60405180910390f35b61014e61091b565b60405161015b9190611911565b60405180910390f35b61017e6004803603810190610179919061144c565b610941565b604051610191979695949392919061192c565b60405180910390f35b6101b460048036038101906101af919061184e565b610d80565b6040516101c191906119a9565b60405180910390f35b6101e460048036038101906101df91906119c4565b610dcc565b005b61020060048036038101906101fb919061184e565b611112565b6040516102109493929190611a9e565b60405180910390f35b610233600480360381019061022e9190611af1565b611272565b6040516102409190611b1e565b60405180910390f35b610251611296565b60405161025e9190611833565b60405180910390f35b610281600480360381019061027c919061184e565b6112ba565b60405161028e91906119a9565b60405180910390f35b60036020528060005260406000206000915090508060000154908060010180546102c090611b68565b80601f01602080910402602001604051908101604052809291908181526020018280546102ec90611b68565b80156103395780601f1061030e57610100808354040283529160200191610339565b820191906000526020600020905b81548152906001019060200180831161031c57829003601f168201915b50505050509080600201549080600301549080600401805461035a90611b68565b80601f016020809104026020016040519081016040528092919081815260200182805461038690611b68565b80156103d35780601f106103a8576101008083540402835291602001916103d3565b820191906000526020600020905b8154815290600101906020018083116103b657829003601f168201915b5050505050908060050154908060060154908060070160009054906101000a900473ffffffffffffffffffffffffffffffffffffffff16905088565b60008060009054906101000a900473ffffffffffffffffffffffffffffffffffffffff1673ffffffffffffffffffffffffffffffffffffffff163373ffffffffffffffffffffffffffffffffffffffff16146104a0576040517f08c379a000000000000000000000000000000000000000000000000000000000815260040161049790611be6565b60405180910390fd5b8473ffffffffffffffffffffffffffffffffffffffff16600260008773ffffffffffffffffffffffffffffffffffffffff1673ffffffffffffffffffffffffffffffffffffffff16815260200190815260200160002060000160009054906101000a900473ffffffffffffffffffffffffffffffffffffffff1673ffffffffffffffffffffffffffffffffffffffff161415610571576040517f08c379a000000000000000000000000000000000000000000000000000000000815260040161056890611c52565b60405180910390fd5b60018214156105b5576040517f08c379a00000000000000000000000000000000000000000000000000000000081526004016105ac90611cbe565b60405180910390fd5b600182116105f8576040517f08c379a00000000000000000000000000000000000000000000000000000000081526004016105ef90611d2a565b60405180910390fd5b84600260008773ffffffffffffffffffffffffffffffffffffffff1673ffffffffffffffffffffffffffffffffffffffff16815260200190815260200160002060000160006101000a81548173ffffffffffffffffffffffffffffffffffffffff021916908373ffffffffffffffffffffffffffffffffffffffff16021790555083600260008773ffffffffffffffffffffffffffffffffffffffff1673ffffffffffffffffffffffffffffffffffffffff16815260200190815260200160002060010190805190602001906106cf92919061135f565b5082600260008773ffffffffffffffffffffffffffffffffffffffff1673ffffffffffffffffffffffffffffffffffffffff168152602001908152602001600020600201908051906020019061072692919061135f565b5081600260008773ffffffffffffffffffffffffffffffffffffffff1673ffffffffffffffffffffffffffffffffffffffff16815260200190815260200160002060030181905550339050949350505050565b606080600260008473ffffffffffffffffffffffffffffffffffffffff1673ffffffffffffffffffffffffffffffffffffffff16815260200190815260200160002060010180546107c990611b68565b80601f01602080910402602001604051908101604052809291908181526020018280546107f590611b68565b80156108425780601f1061081757610100808354040283529160200191610842565b820191906000526020600020905b81548152906001019060200180831161082557829003601f168201915b50505050509150600260008473ffffffffffffffffffffffffffffffffffffffff1673ffffffffffffffffffffffffffffffffffffffff168152602001908152602001600020600201805461089690611b68565b80601f01602080910402602001604051908101604052809291908181526020018280546108c290611b68565b801561090f5780601f106108e45761010080835404028352916020019161090f565b820191906000526020600020905b8154815290600101906020018083116108f257829003601f168201915b50505050509050915091565b600160009054906101000a900473ffffffffffffffffffffffffffffffffffffffff1681565b60606000806060600080600080600360008a8152602001908152602001600020604051806101000160405290816000820154815260200160018201805461098790611b68565b80601f01602080910402602001604051908101604052809291908181526020018280546109b390611b68565b8015610a005780601f106109d557610100808354040283529160200191610a00565b820191906000526020600020905b8154815290600101906020018083116109e357829003601f168201915b505050505081526020016002820154815260200160038201548152602001600482018054610a2d90611b68565b80601f0160208091040260200160405190810160405280929190818152602001828054610a5990611b68565b8015610aa65780601f10610a7b57610100808354040283529160200191610aa6565b820191906000526020600020905b815481529060010190602001808311610a8957829003601f168201915b5050505050815260200160058201548152602001600682015481526020016007820160009054906101000a900473ffffffffffffffffffffffffffffffffffffffff1673ffffffffffffffffffffffffffffffffffffffff1673ffffffffffffffffffffffffffffffffffffffff168152505090506000600260003373ffffffffffffffffffffffffffffffffffffffff1673ffffffffffffffffffffffffffffffffffffffff1681526020019081526020016000206040518060800160405290816000820160009054906101000a900473ffffffffffffffffffffffffffffffffffffffff1673ffffffffffffffffffffffffffffffffffffffff1673ffffffffffffffffffffffffffffffffffffffff168152602001600182018054610bcd90611b68565b80601f0160208091040260200160405190810160405280929190818152602001828054610bf990611b68565b8015610c465780601f10610c1b57610100808354040283529160200191610c46565b820191906000526020600020905b815481529060010190602001808311610c2957829003601f168201915b50505050508152602001600282018054610c5f90611b68565b80601f0160208091040260200160405190810160405280929190818152602001828054610c8b90611b68565b8015610cd85780601f10610cad57610100808354040283529160200191610cd8565b820191906000526020600020905b815481529060010190602001808311610cbb57829003601f168201915b5050505050815260200160038201548152505090506040518060400160405280600981526020017f756e646566696e6564000000000000000000000000000000000000000000000081525098508160400151975081606001519650816080015195508160a0015194508160c0015193508160e001519250600181606001511480610d66575060028160600151145b15610d7357816020015198505b5050919395979092949650565b6000600260008373ffffffffffffffffffffffffffffffffffffffff1673ffffffffffffffffffffffffffffffffffffffff168152602001908152602001600020600301549050919050565b6001600260003373ffffffffffffffffffffffffffffffffffffffff1673ffffffffffffffffffffffffffffffffffffffff168152602001908152602001600020600301541480610e5e575060028060003373ffffffffffffffffffffffffffffffffffffffff1673ffffffffffffffffffffffffffffffffffffffff16815260200190815260200160002060030154145b80610eab57506003600260003373ffffffffffffffffffffffffffffffffffffffff1673ffffffffffffffffffffffffffffffffffffffff16815260200190815260200160002060030154145b610eea576040517f08c379a0000000000000000000000000000000000000000000000000000000008152600401610ee190611de2565b60405180910390fd5b604051806101000160405280888152602001878152602001868152602001858152602001848152602001838152602001828152602001600260003373ffffffffffffffffffffffffffffffffffffffff1673ffffffffffffffffffffffffffffffffffffffff16815260200190815260200160002060000160009054906101000a900473ffffffffffffffffffffffffffffffffffffffff1673ffffffffffffffffffffffffffffffffffffffff1681525060036000898152602001908152602001600020600082015181600001556020820151816001019080519060200190610fd592919061135f565b506040820151816002015560608201518160030155608082015181600401908051906020019061100692919061135f565b5060a0820151816005015560c0820151816006015560e08201518160070160006101000a81548173ffffffffffffffffffffffffffffffffffffffff021916908373ffffffffffffffffffffffffffffffffffffffff160217905550905050600160009054906101000a900473ffffffffffffffffffffffffffffffffffffffff1673ffffffffffffffffffffffffffffffffffffffff1663a9059cbb33620f42406040518363ffffffff1660e01b81526004016110c5929190611e3d565b6020604051808303816000875af11580156110e4573d6000803e3d6000fd5b505050506040513d601f19601f820116820180604052508101906111089190611e9e565b5050505050505050565b60026020528060005260406000206000915090508060000160009054906101000a900473ffffffffffffffffffffffffffffffffffffffff169080600101805461115b90611b68565b80601f016020809104026020016040519081016040528092919081815260200182805461118790611b68565b80156111d45780601f106111a9576101008083540402835291602001916111d4565b820191906000526020600020905b8154815290600101906020018083116111b757829003601f168201915b5050505050908060020180546111e990611b68565b80601f016020809104026020016040519081016040528092919081815260200182805461121590611b68565b80156112625780601f1061123757610100808354040283529160200191611262565b820191906000526020600020905b81548152906001019060200180831161124557829003601f168201915b5050505050908060030154905084565b6004818154811061128257600080fd5b906000526020600020016000915090505481565b60008054906101000a900473ffffffffffffffffffffffffffffffffffffffff1681565b6000600160009054906101000a900473ffffffffffffffffffffffffffffffffffffffff1673ffffffffffffffffffffffffffffffffffffffff166370a08231836040518263ffffffff1660e01b81526004016113179190611833565b602060405180830381865afa158015611334573d6000803e3d6000fd5b505050506040513d601f19601f820116820180604052508101906113589190611ee0565b9050919050565b82805461136b90611b68565b90600052602060002090601f01602090048101928261138d57600085556113d4565b82601f106113a657805160ff19168380011785556113d4565b828001600101855582156113d4579182015b828111156113d35782518255916020019190600101906113b8565b5b5090506113e191906113e5565b5090565b5b808211156113fe5760008160009055506001016113e6565b5090565b6000604051905090565b600080fd5b600080fd5b6000819050919050565b61142981611416565b811461143457600080fd5b50565b60008135905061144681611420565b92915050565b6000602082840312156114625761146161140c565b5b600061147084828501611437565b91505092915050565b61148281611416565b82525050565b600081519050919050565b600082825260208201905092915050565b60005b838110156114c25780820151818401526020810190506114a7565b838111156114d1576000848401525b50505050565b6000601f19601f8301169050919050565b60006114f382611488565b6114fd8185611493565b935061150d8185602086016114a4565b611516816114d7565b840191505092915050565b6000819050919050565b61153481611521565b82525050565b600073ffffffffffffffffffffffffffffffffffffffff82169050919050565b60006115658261153a565b9050919050565b6115758161155a565b82525050565b600061010082019050611591600083018b611479565b81810360208301526115a3818a6114e8565b90506115b2604083018961152b565b6115bf606083018861152b565b81810360808301526115d181876114e8565b90506115e060a083018661152b565b6115ed60c083018561152b565b6115fa60e083018461156c565b9998505050505050505050565b6116108161155a565b811461161b57600080fd5b50565b60008135905061162d81611607565b92915050565b600080fd5b600080fd5b7f4e487b7100000000000000000000000000000000000000000000000000000000600052604160045260246000fd5b611675826114d7565b810181811067ffffffffffffffff821117156116945761169361163d565b5b80604052505050565b60006116a7611402565b90506116b3828261166c565b919050565b600067ffffffffffffffff8211156116d3576116d261163d565b5b6116dc826114d7565b9050602081019050919050565b82818337600083830152505050565b600061170b611706846116b8565b61169d565b90508281526020810184848401111561172757611726611638565b5b6117328482856116e9565b509392505050565b600082601f83011261174f5761174e611633565b5b813561175f8482602086016116f8565b91505092915050565b61177181611521565b811461177c57600080fd5b50565b60008135905061178e81611768565b92915050565b600080600080608085870312156117ae576117ad61140c565b5b60006117bc8782880161161e565b945050602085013567ffffffffffffffff8111156117dd576117dc611411565b5b6117e98782880161173a565b935050604085013567ffffffffffffffff81111561180a57611809611411565b5b6118168782880161173a565b92505060606118278782880161177f565b91505092959194509250565b6000602082019050611848600083018461156c565b92915050565b6000602082840312156118645761186361140c565b5b60006118728482850161161e565b91505092915050565b6000604082019050818103600083015261189581856114e8565b905081810360208301526118a981846114e8565b90509392505050565b6000819050919050565b60006118d76118d26118cd8461153a565b6118b2565b61153a565b9050919050565b60006118e9826118bc565b9050919050565b60006118fb826118de565b9050919050565b61190b816118f0565b82525050565b60006020820190506119266000830184611902565b92915050565b600060e0820190508181036000830152611946818a6114e8565b9050611955602083018961152b565b611962604083018861152b565b818103606083015261197481876114e8565b9050611983608083018661152b565b61199060a083018561152b565b61199d60c083018461156c565b98975050505050505050565b60006020820190506119be600083018461152b565b92915050565b600080600080600080600060e0888a0312156119e3576119e261140c565b5b60006119f18a828b01611437565b975050602088013567ffffffffffffffff811115611a1257611a11611411565b5b611a1e8a828b0161173a565b9650506040611a2f8a828b0161177f565b9550506060611a408a828b0161177f565b945050608088013567ffffffffffffffff811115611a6157611a60611411565b5b611a6d8a828b0161173a565b93505060a0611a7e8a828b0161177f565b92505060c0611a8f8a828b0161177f565b91505092959891949750929550565b6000608082019050611ab3600083018761156c565b8181036020830152611ac581866114e8565b90508181036040830152611ad981856114e8565b9050611ae8606083018461152b565b95945050505050565b600060208284031215611b0757611b0661140c565b5b6000611b158482850161177f565b91505092915050565b6000602082019050611b336000830184611479565b92915050565b7f4e487b7100000000000000000000000000000000000000000000000000000000600052602260045260246000fd5b60006002820490506001821680611b8057607f821691505b60208210811415611b9457611b93611b39565b5b50919050565b7f4f6e6c792061646d696e2063616e206164642075736572732100000000000000600082015250565b6000611bd0601983611493565b9150611bdb82611b9a565b602082019050919050565b60006020820190508181036000830152611bff81611bc3565b9050919050565b7f5573657220616c72656164792065786973747321000000000000000000000000600082015250565b6000611c3c601483611493565b9150611c4782611c06565b602082019050919050565b60006020820190508181036000830152611c6b81611c2f565b9050919050565b7f4f6e6c79206f6e652061646d696e2063616e2065786973742100000000000000600082015250565b6000611ca8601983611493565b9150611cb382611c72565b602082019050919050565b60006020820190508181036000830152611cd781611c9b565b9050919050565b7f456e7465722076616c696420747970655f696421000000000000000000000000600082015250565b6000611d14601483611493565b9150611d1f82611cde565b602082019050919050565b60006020820190508181036000830152611d4381611d07565b9050919050565b7f416464206669736820646174612063616e206265206d616e616765642062792060008201527f61646d696e2c207363696574697374206f7220617574686f72697a656420666960208201527f736865726d616e00000000000000000000000000000000000000000000000000604082015250565b6000611dcc604783611493565b9150611dd782611d4a565b606082019050919050565b60006020820190508181036000830152611dfb81611dbf565b9050919050565b6000819050919050565b6000611e27611e22611e1d84611e02565b6118b2565b611521565b9050919050565b611e3781611e0c565b82525050565b6000604082019050611e52600083018561156c565b611e5f6020830184611e2e565b9392505050565b60008115159050919050565b611e7b81611e66565b8114611e8657600080fd5b50565b600081519050611e9881611e72565b92915050565b600060208284031215611eb457611eb361140c565b5b6000611ec284828501611e89565b91505092915050565b600081519050611eda81611768565b92915050565b600060208284031215611ef657611ef561140c565b5b6000611f0484828501611ecb565b9150509291505056fea2646970667358221220291aabdd62e96d62ea51a1a94b5c7801a690a11bbad6acfb640c72f6f779551b64736f6c634300080b0033",
  "immutableReferences": {},
  "source": "// SPDX-License-Identifier: GPL-3.0\r\npragma solidity >=0.7.0 <0.9.0;\r\nimport './Tether.sol';\r\n\r\ncontract SalmonTrack {\r\n    struct Salmon {\r\n        bytes32 tracker_id;\r\n        string coordinate_url;\r\n        uint weight;\r\n        uint length;\r\n        string image_url;\r\n        uint status;\r\n        uint catch_time;\r\n        address catcher_id;\r\n    }\r\n\r\n    struct User {\r\n        address user_id;\r\n        string name;\r\n        string surname;\r\n        uint user_type;\r\n    }\r\n\r\n    address public admin;\r\n    Tether public tether;\r\n\r\n    mapping( address => User ) public users;\r\n    mapping( bytes32 => Salmon ) public salmons;\r\n\r\n    bytes32[] public salmonIds;\r\n\r\n    constructor(Tether _tether) {\r\n        tether = _tether;\r\n\r\n        admin = msg.sender;\r\n        users[admin].user_id = admin;\r\n        users[admin].name = \"Admin\";\r\n        users[admin].surname = \"Administrators\";\r\n        users[admin].user_type = 1;\r\n    }\r\n\r\n    function addNewUser(address newUserID, string memory name, string memory surname, uint user_type)  public returns (address sender ){\r\n        require(\r\n            msg.sender == admin,\r\n            \"Only admin can add users!\"\r\n        );\r\n        require(\r\n            users[newUserID].user_id != newUserID,\r\n            \"User already exists!\"\r\n        );\r\n        require(\r\n            user_type != 1,\r\n            \"Only one admin can exist!\"\r\n        );\r\n          require(\r\n            user_type > 1,\r\n            \"Enter valid type_id!\"\r\n        );\r\n\r\n        users[newUserID].user_id = newUserID;\r\n        users[newUserID].name = name;\r\n        users[newUserID].surname = surname;\r\n        users[newUserID].user_type = user_type;\r\n\r\n        sender = msg.sender;\r\n    }\r\n\r\n    function getUserNameSurname(address user_id) public view returns (string memory name, string memory surname) {        \r\n        name = users[user_id].name;\r\n        surname = users[user_id].surname;\r\n    }\r\n\r\n    function getUserType(address user_id) public view returns(uint256 userType) {\r\n        userType = users[user_id].user_type;\r\n    }\r\n\r\n    function registerSalmon(\r\n        bytes32 tracker_id,\r\n        string memory coordinate_url,\r\n        uint weight,\r\n        uint length,\r\n        string memory image_url,\r\n        uint status,\r\n        uint catch_time\r\n        ) public {\r\n        require(\r\n            users[msg.sender].user_type == 1\r\n            || users[msg.sender].user_type == 2\r\n            || users[msg.sender].user_type == 3,\r\n            \"Add fish data can be managed by admin, scietist or authorized fisherman\"\r\n        );\r\n\r\n        salmons[tracker_id] = Salmon(tracker_id, coordinate_url, weight, length, image_url, status, catch_time, users[msg.sender].user_id);\r\n        tether.transfer(msg.sender, 1000000); // Getting reward for registrating a fish\r\n    }\r\n\r\n    function getSalmonData(bytes32 tracker_id) public view returns (\r\n        string memory coordinate_url,\r\n        uint weight,\r\n        uint length,\r\n        string memory image_url,\r\n        uint status,\r\n        uint catch_time,\r\n        address catcher_id\r\n    ) {\r\n        Salmon memory salmon = salmons[tracker_id];\r\n        User memory user = users[msg.sender];\r\n\r\n        coordinate_url = \"undefined\";\r\n        weight = salmon.weight;\r\n        length = salmon.length;\r\n        image_url = salmon.image_url;\r\n        status = salmon.status;\r\n        catch_time = salmon.catch_time;\r\n        catcher_id = salmon.catcher_id;\r\n\r\n        if (user.user_type == 1 || user.user_type == 2) {\r\n             coordinate_url = salmon.coordinate_url;\r\n        }\r\n    }\r\n\r\n    function getBalance(address user_id) public view returns (uint balance) {\r\n        balance = tether.balanceOf(user_id);\r\n    }\r\n}",
  "sourcePath": "C:\\Users\\ricar\\OneDrive\\Desktop\\LU 7.sem\\Blokdes\\gala-darbs-rn18011\\src\\contracts\\SalmonTrack.sol",
  "compiler": {
    "name": "solc",
    "version": "0.8.11+commit.d7f03943.Emscripten.clang"
  },
  "schemaVersion": "3.4.4",
  "updatedAt": "2022-01-22T16:22:44.436Z",
  "networkType": "ethereum",
  "devdoc": {
    "kind": "dev",
    "methods": {},
    "version": 1
  },
  "userdoc": {
    "kind": "user",
    "methods": {},
    "version": 1
  }
}